:020000040000FA
:10A0000008100020F5A0000007A1000009A1000031
:10A010000000000000000000000000000000000040
:10A020000000000000000000000000000BA1000084
:10A0300000000000000000000DA100000FA10000C2
:10A0400011A1000011A1000011A1000011A1000048
:10A0500011A100000000000011A1000011A10000EA
:10A0600011A1000011A1000011A1000011A1000028
:10A0700011A1000011A1000011A1000011A1000018
:10A0800011A1000011A1000011A1000011A1000008
:10A0900011A1000011A1000011A1000011A10000F8
:10A0A00011A1000011A1000000000000000000004C
:10A0B00000000000000000000000000000000000A0
:10A0C0000348854600F02CF80048004741A20000F4
:10A0D00008100020401E00BF00BF00BF00BF00BF2F
:10A0E00000BF00BF00BF00BF00BF00BF00BFF1D175
:10A0F00070470000074802680F210A4302600648C3
:10A10000804706480047FEE7FEE7FEE7FEE7FEE77A
:10A11000FEE700002405004045A10000C1A00000AA
:10A12000064C0125064E05E0E36807CC2B430C3CAA
:10A1300098471034B442F7D3FFF7C6FFA0A200003F
:10A14000B0A2000010B500F045F8002805D007487F
:10A1500007494860C8130749886100F01FF80028C4
:10A1600002D001200449886010BD0000DFFF07C055
:10A1700000050040006C00400006004002E008C8F6
:10A18000121F08C1002AFAD170477047002001E071
:10A1900001C1121F002AFBD1704700000C48008C3F
:10A1A000C0B2012812D10A48808C0007000F002895
:10A1B0000CD10748806AF0210840402806D10448A5
:10A1C000C06A0840002801D1012070470020FCE748
:10A1D000C00F00F01948008CC0B201282CD11748DC
:10A1E000808C0007000F002826D11448806AF021D7
:10A1F0000840002806D11148C06A0840002801D153
:10A20000012070470D48806AF0210840102806D1CF
:10A210000A48C06A0840002801D10120F1E7074838
:10A22000806AF0210840302806D10448C06A0840FE
:10A23000002801D10120E4E70020E2E7C00F00F090
:10A24000002408200F2108E0012205231B07072511
:10A250002D025B1985005A51401C8842F4D900BF79
:10A260000DE001210A46A240D0B2054A505400BF79
:10A2700000BF601C4407640F642000F003F8F0E79F
:10A280000405005001B505E00098401E0090034809
:10A29000FFF720FF00980028F6D108BDE703000073
:10A2A000B0A2000000080020040000007CA1000013
:04A2B0000024F40092
:040000050000A0C196
:00000001FF
