:020000040000FA
:10A00000D0100020F5A0000007A1000009A1000069
:10A010000000000000000000000000000000000040
:10A020000000000000000000000000000BA1000084
:10A0300000000000000000000DA100000FA10000C2
:10A0400011A1000011A1000011A1000011A1000048
:10A0500011A100000000000011A1000011A10000EA
:10A0600011A1000011A1000011A1000011A1000028
:10A0700011A1000011A1000011A1000011A1000018
:10A0800011A1000011A1000011A1000011A1000008
:10A0900011A1000011A1000011A1000011A10000F8
:10A0A00011A1000011A1000000000000000000004C
:10A0B00000000000000000000000000000000000A0
:10A0C0000348854600F02CF80048004741A20000F4
:10A0D000D0100020401E00BF00BF00BF00BF00BF67
:10A0E00000BF00BF00BF00BF00BF00BF00BFF1D175
:10A0F00070470000074802680F210A4302600648C3
:10A10000804706480047FEE7FEE7FEE7FEE7FEE77A
:10A11000FEE700002405004045A10000C1A00000AA
:10A12000064C0125064E05E0E36807CC2B430C3CAA
:10A1300098471034B442F7D3FFF7C6FF04A50000D8
:10A1400014A5000010B500F045F8002805D0074818
:10A1500007494860C8130749886100F01FF80028C4
:10A1600002D001200449886010BD0000DFFF07C055
:10A1700000050040006C00400006004002E008C8F6
:10A18000121F08C1002AFAD170477047002001E071
:10A1900001C1121F002AFBD1704700000C48008C3F
:10A1A000C0B2012812D10A48808C0007000F002895
:10A1B0000CD10748806AF0210840402806D10448A5
:10A1C000C06A0840002801D1012070470020FCE748
:10A1D000C00F00F01948008CC0B201282CD11748DC
:10A1E000808C0007000F002826D11448806AF021D7
:10A1F0000840002806D11148C06A0840002801D153
:10A20000012070470D48806AF0210840102806D1CF
:10A210000A48C06A0840002801D10120F1E7074838
:10A22000806AF0210840302806D10448C06A0840FE
:10A23000002801D10120E4E70020E2E7C00F00F090
:10A24000FF20013019498861400088612DE001211B
:10A25000002000F01FF90446002C08D0642000F014
:10A2600027F80021084600F015F9044603E0FF2016
:10A2700001300E4988600121084600F00BF90546BF
:10A28000002D08D0642000F013F80021012000F018
:10A2900001F9054603E00120400204498860002CD2
:10A2A00003D1002D01D100BFFEE7D0E7000500502B
:10A2B00001B505E00098401E00900348FFF70AFF33
:10A2C00000980028F6D108BDE703000010B58A0009
:10A2D00005231B07072424021B1984001A5110BDF3
:10A2E00001210522120707231B02D2188300D15037
:10A2F0007047000001218140014A916070470000D1
:10A3000000050050F7B506460F46002E01D13B4828
:10A3100000E03B480446002E1ED11F20FFF7E0FF5F
:10A320001420FFF7DDFF00211620FFF7CFFF1E20CE
:10A33000FFF7D6FF1F20052109026118886014204D
:10A3400081016118C86016200521090261180861A1
:10A350001E20FFF7CFFF1EE01D20FFF7C1FF1520D5
:10A36000FFF7BEFF00211720FFF7B0FF1C20FFF70B
:10A37000B7FF1D20052109026118886015200521FD
:10A3800009026118C86017200521090261180861D7
:10A390001C20FFF7AFFF012000070521090261180B
:10A3A0004862002F06D0012F06D0022F06D0032FBF
:10A3B00008D105E0002507E0022505E0042503E0BB
:10A3C000062501E0002500BF00BF0298002806D046
:10A3D00001202843052109026118486503E0052092
:10A3E0000002201845650021FF200930015101209D
:10A3F00005210902611808602046FEBD00300040BA
:10A4000000400040FFB581B000270026019D1F4895
:10A41000019D854201D11E2400E01C2400BF0120C3
:10A42000A0401B49C86000BF27E00398805D05215C
:10A4300009026918C86100E07F1CFF2009304059FB
:10A44000002803D1032000038742F5D30320000333
:10A45000874205D12046FFF74DFF002005B0F0BD33
:10A460000021FF2009304151052000022818806991
:10A47000C1B204988155701C86B202988642D4DB22
:10A480002046FFF737FF0120E8E7000000300040DA
:10A490000005005070B506460D46002D01D0012084
:10A4A00000E00020024600213046FFF72BFF044663
:10A4B000002C00D170BD002005E0104A105400218E
:10A4C0000F4A1154401C6428F7D30D4B0B4A6421EA
:10A4D0002046FFF797FF002800D1EBE7002108E0B6
:10A4E0000648405C064A525C904201D00020E1E7F9
:10A4F000491C6429F4D30120DCE700000408002093
:10A500006808002014A500000008002004000000D6
:08A510007CA100000024F4000E
:040000050000A0C196
:00000001FF
