:020000040000FA
:10D00000C8240020D5D00000E7D00000E9D00000FF
:10D010000000000000000000000000000000000010
:10D02000000000000000000000000000EBD0000045
:10D030000000000000000000EDD00000EFD0000074
:10D04000F1D00000F1D00000F1D00000F1D00000DC
:10D05000F1D0000000000000F1D00000F1D000008D
:10D06000F1D00000F1D00000F1D00000F1D00000BC
:10D07000F1D00000F1D00000F1D00000F1D00000AC
:10D08000F1D00000DDDA0000F1D00000F1D00000A6
:10D09000F1D00000F1D0000005DB0000F1D000006D
:10D0A000F1D00000F1D000000000000000000000FE
:10D0B0000000000000000000000000000000000070
:10D0C0000348854600F078FC0048004779E40000FA
:10D0D000C8240020074802680F210A43026006485E
:10D0E000804706480047FEE7FEE7FEE7FEE7FEE76B
:10D0F000FEE700002405004041DB0000C1D0000035
:10D1000030B50B46014600202022012409E00D46DF
:10D11000D5409D4205D31D469540491B2546954067
:10D1200040191546521E002DF1DC30BD70B50024AB
:10D130002546002801DA01244042002901DA0125B0
:10D140004942FFF7DDFFAC4200D04042002C00D046
:10D15000494270BD0549064A08685043054A80188F
:10D160000860400870470149086070477C1900203A
:10D170006D4EC6413930000003460B439B0703D078
:10D1800009E008C9121F08C0042AFAD203E00B788C
:10D19000491C0370401C521EF9D27047F8B5024674
:10D1A0004A40D40F42004B0052085B089A4202D218
:10D1B0000246084611464A0023D0C30D4A00DDB29C
:10D1C000120EAD1A202D35DA49020126490AF6055C
:10D1D0008A19002C00D0524220214F1B1146B94021
:10D1E0002A411018C20D9A4221D0002C17D0012DCF
:10D1F00008DCDA05801AD20F8019D207DBB200F002
:10D2000003FBF8BDDA05801A012340001B06C01895
:10D2100080185A428018CA0F1043490007E0490895
:10D22000C2071143DA05801A80194008801800F0FF
:10D23000E3FAF8BD61000122511A001BF7E7012251
:10D24000D2075140AAE70122D2075040A6E7024682
:10D2500070B54A40D30FDB0740002DD04A002AD0DA
:10D26000010E140E091900021202400A520A841813
:10D27000E50104465443000A120A2E045043A4193F
:10D280004219200CC543AA18120C01257F39521CE3
:10D29000AD0352191204240400D0521C104301D4CF
:10D2A0004000491EC2B20C06C0092018401C4008AC
:10D2B000802A02D003E0002070BD40084000002911
:10D2C00000DA0020184370BD70B502464A40D50F01
:10D2D00040004A00ED0740085208002814D0002AF8
:10D2E00012D0C40DD30D41020120C0055202490ADB
:10D2F000520AE41A091812187D34914201D3641CB1
:10D3000000E04900002C01DA002070BD00239142AA
:10D3100001D3891A0343400849000028F7D10029A6
:10D320000AD0914202D10121C90705E0914201D200
:10D33000012101E00121C943E005C018401900F0B6
:10D340005BFA70BDF0B507460846584087B0C00F7D
:10D35000049048000E46590040084908BC1A88410C
:10D3600005D2384631461E4617460B46024658003F
:10D370004008104303D13846314607B0F0BD300DA8
:10D38000039040055900400D490D0590401A029048
:10D3900040286DDA18030121000B090508430190AC
:10D3A00004980092002805D001995242002088413B
:10D3B00000920190029840210A1A0199009800F009
:10D3C000E7F905460C46684607C800F002FAC0199E
:10D3D0007141039A0E0D0023D71756401A467A4022
:10D3E000164340D0049A002A29D0029A012A039AAF
:10D3F00011DC1205C01A914101263605001C71414D
:10D40000D20F059ED2070093019202962A46234628
:10D4100000F041FAB1E71605224A0F46B218C01AC9
:10D42000B74101210905001C4F4100187F411146F9
:10D4300018187941E20F10436D19644113E0E207B7
:10D440006D0815436408C2071443039A01261205A8
:10D45000C01A91413605001C7141CE074008304387
:10D460004908C01851412A46234600F007FA84E7CC
:10D47000049801224000C117121A00238B4104981E
:10D480003146C417381AA141EFE730B40124E4074C
:10D49000634030BC56E730B40124E407614030BC3F
:10D4A00050E700000000E0FFF0B51FB488B00B9912
:10D4B0000998002448400999C00F4900490809917A
:10D4C000C0070B990090490049080B9109990898E9
:10D4D000A646084303D00B990A98084303D10020BD
:10D4E00001460DB0F0BD099801244000420D4800EE
:10D4F000410D099824050003000B204309900B9867
:10D500000003000B20430B9050181A4940180022CA
:10D5100001901446104601E0032801DA034600E0BA
:10D5200003239C46C11A0AAE0AE05F0008ADED5B1A
:10D530004F00F75B7D430027AA187C415B1E491C06
:10D540006145F2DD410004AB5A522104120C0A433A
:10D55000240C401C0828DFDB0198029000997046DB
:10D5600001910090059B049A0799069800F093F9A1
:10D57000B7E700000DFCFFFFF0B50C465C4085B03E
:10D58000E40FE40703944C00002664085900944615
:10D59000490802460296224321D062460A431ED021
:10D5A0006200570D4A000E032303550D0124024665
:10D5B0002C492405781B1B0B360B401823432643AC
:10D5C000614600901C46501AB44103D30098401C99
:10D5D000009002E0921800985B41002803DA0020D6
:10D5E000014605B0F0BD0020012109050746864629
:10D5F00011E064461D46141BB54106D36546521B17
:10D60000B341744607430C43A646CD07400849087A
:10D61000284392185B4105460D43EAD11046184352
:10D6200013D06046194650407140084303D1002290
:10D630000123DB0709E06046101AB34102D2012240
:10D64000002302E00122D2435310009874460105E2
:10D65000381C6141029C039D0019694100F00EF9DC
:10D66000BFE70000FD030000C217C10F504010B516
:10D670004018CA079623002100F0C6F810BD10B567
:10D6800000229623114600F0BFF810BDC20F4100E2
:10D6900040020123400ADB05D207090EC0187F298A
:10D6A00001DA00207047962903DC9623591AC840F6
:10D6B00001E096398840002AF4D04042704741008A
:10D6C00040020122400AD205090E80187F2901DAA2
:10D6D00000207047962903DC9622511AC8407047F3
:10D6E000963988407047000070B5CD0F4A00090395
:10D6F0000123090B1B0519430B4BED070024520DA9
:10D700009A4201DA002070BD074B34339A4203DCA1
:10D710009A1A00F04DF802E00449511888402C4351
:10D72000F1D0404270BD0000FF030000CDFBFFFFC1
:10D73000C20FD207400040080BD0C10D0723DB0108
:10D74000C91840020905400A1143C20840071143A5
:10D750007047002001467047CB0FDB07490010B52A
:10D76000490802460A4307D00A0D07240903E401C9
:10D77000090B121B002A01DC002010BDC900440F58
:10D780000C43C100E018D205801800F035F810BD38
:10D7900010B5202A04DB0146203A9140002010BD3C
:10D7A000914020239C1A0346E3401943904010BD4A
:10D7B00010B5202A04DB0846203AD040002110BDD5
:10D7C0000B46D340D0402024A21A9140084319466A
:10D7D00010BD10B5202A06DBCB170846203A1041B1
:10D7E000C1170B4306E00B461341D0402024A21A78
:10D7F00091400843194610BD002904DA401C490035
:10D8000001D140084000704770B40024050C05D1D8
:10D810001024000402D1002922D01124050E01D1C8
:10D8200008340002050F01D1241D0001850F01D12C
:10D83000A41C8000002801DB641C4000002908D0E3
:10D8400020252E1B0D46F540A14000D00121294383
:10D8500008431B1B0106DB1D000A002B02DA002017
:10D8600070BC7047DB05181880180029F8DA401CD6
:10D870004900F5D170BC40084000704710B5002B3E
:10D8800008DA0024401C614192185B411A4301D11F
:10D890004008400010BDF0B51FB482B005460C0032
:10D8A00003D0084600F068F902E000F065F9203086
:10D8B0000246009021462846FFF76AFF049B059A1E
:10D8C00004460F4618431143084303D12046394606
:10D8D00007B0F0BD1846104317D0009840210A1A2F
:10D8E00018460599FFF764FF05460E46009A05990C
:10D8F0000498FFF74DFF084301D0012000E000200D
:10D90000C11705430E432C43374300990E98630516
:10D91000401A7905E40A0A3000220C43FD0A002867
:10D9200002DA00200146D3E70105101969410C9C79
:10D930000D9D00196941FFF7A1FFC9E770B54B00C4
:10D940005B0803430BD04B005C0D00263346654259
:10D95000B341D417AD1AA34102DB0020014670BDCC
:10D9600012053018514170BD0EB5C217C10F50409D
:10D97000CA0740180021054B0293019200910A4604
:10D980000B46FFF788FF03B000BD00003304000022
:10D9900010B5002904DB0124E40740428C412146F4
:10D9A000002B04DB1C460123DB075242A3419942B2
:10D9B00000D1904210BD0000064C0125064E05E046
:10D9C0002046E36807C82B4398471034B442F7D386
:10D9D000FFF77AFB4009010050090100FEB5002362
:10D9E0001A461B1A8A4103DB0020014603B0F0BD32
:10D9F0004A000D0301212D0B0905520D0D43D107DE
:10DA000002D100186D41521E5110FF31FF3101311A
:10DA1000002704463E463846009701910246012100
:10DA200000200905FFF7C4FEC3197141F8183246FA
:10DA300084468E464A4161462846611A904104D385
:10DA40006046241A954176461F46241900986D4178
:10DA5000401C00903428E1DDF91930467041091B63
:10DA6000A84103D20022D243134601E0002213460C
:10DA700001980105381C7141FFF700FFB6E770B54A
:10DA80008D180478401CA207920F01D10278401C27
:10DA9000231106D10378401C03E00678401C0E7069
:10DAA000491C521EF9D1002B14D002780C26401CC0
:10DAB0008A1A34400C2C03D0A401121B9B1C07E0D3
:10DAC0000478401C2402F8E71478521C0C70491C9E
:10DAD0005B1EF9D5A942D4D3002070BD064800686A
:10DAE000002807D00020044908600449086001208C
:10DAF000034988607047000040110140041900206C
:10DB00000010014010B50C480068002811D00A48E8
:10DB100000688047044600BF2346002B07D000BFA3
:10DB2000064AFF213331184600F006F900BF00BF56
:10DB300001E000F0C5FB10BD1C19002064080100C5
:10DB400010B500F05FFC002805D007480749486081
:10DB5000C8130749886100F03BFC002802D001206F
:10DB60000449886010BD0000DFFF07C000050040C9
:10DB7000006C0040000600402021020C01D0102162
:10DB80001046020A01D008391046020901D0091FC7
:10DB90001046820801D0891E1046420801D0881E16
:10DBA0007047081A704730B47446641E2578641CA8
:10DBB000AB4204D3635D5B00E31830BC18471D46DD
:10DBC000F8E700004900CA02104300D004204A0DC3
:10DBD00001D001221043054A490D914201D1022191
:10DBE0000843012800D1052070470000FF0700000E
:10DBF000F8B504464F1EC8000838211815461E46C1
:10DC0000086849683A4606239A4310D02A463346A4
:10DC1000FFF74AFC3A46D200083AA3181A687F1E5A
:10DC20005B68FFF78FFB06223B469343EED1022F42
:10DC300023D0042F11D0062F2FD12A463346FFF7C9
:10DC400033FCE36AA26AFFF77DFB2A463346FFF7FF
:10DC50002BFC636A226AFFF775FB2A463346FFF7FF
:10DC600023FCE369A269FFF76DFB2A463346FFF701
:10DC70001BFC63692269FFF765FB2A463346FFF701
:10DC800013FCE368A268FFF75DFB2A463346FFF703
:10DC90000BFC63682268FFF755FBF8BD034A10B51B
:10DCA00000201107FFF74AFE10BD000001FDFFFF35
:10DCB00002E008C8121F08C1002AFAD17047704755
:10DCC000002001E001C1121F002AFBD170470000B3
:10DCD00001490860704700008019002010B500233A
:10DCE0001A4620211846C2DF0446002C01D001202C
:10DCF00010BD0223012211460020D3DF0446002C70
:10DD000001D00120F4E742210020CDDF0446002CA1
:10DD100001D00120ECE707490020D1DF0446002CA8
:10DD200001D00120E4E7002C01D00120E0E7002031
:10DD3000DEE700003303000070470000F8B504463A
:10DD400017480078142148431549091D0E5C081F27
:10DD50000078142148431249091D401880680001C9
:10DD600010490D580E480078142148430C49091DEC
:10DD700040184088091F0090097814225143084A2E
:10DD8000121D89180B69111F097814225143044A86
:10DD9000121D89180846083022463146A847F8BDAA
:10DDA0002C1A0020881C002000BFFEE7F0B585B0CB
:10DDB0000F2758480078142148435649091D441834
:10DDC000E5682078022804D0042823D005286FD1E4
:10DDD0006FE0206903905048008886026088801BAD
:10DDE0000490039880190390A08880194519012197
:10DDF00089020498884206D204988208284603992A
:10DE000021DF074605E0FF2201322846039921DF82
:10DE1000074676E0A0680001404940180089049058
:10DE2000A0680001401840890390A06800014018D4
:10DE3000406802900298A84205D10399049848438B
:10DE40006188884202D0A06803280DD10120000714
:10DE5000006981B22846FFF753F92F49098846180F
:10DE6000304620DF074622E001200007006981B22A
:10DE70002846FFF745F9064601200007006980B2F1
:10DE80007043281A8008019001200007006980B2C1
:10DE9000711C484361884919401A80080090314636
:10DEA0002046009B019A02F0B7FB074600BF28E01E
:10DEB00026E001200007006981B22846FFF720F91B
:10DEC0000646A088411901200007006980B270430E
:10DED000081A80080490A08840196188421801201F
:10DEE0000007006980B2711C4843801A80080390C3
:10DEF00031462046039B049A02F08EFB074600E061
:10DF000000BF00BF002F02D10120024988703846AF
:10DF100005B0F0BD2C1A002018190020881C002024
:10DF200010B5002407484078002809DDFFF73EFFC0
:10DF30000446002C04D0112C02D02046FFF7FEFE30
:10DF4000204610BD2C1A00200023142141430C4A06
:10DF500053541421414389184B8002231421414317
:10DF600089188B600023142141438918CB60142148
:10DF7000414389180B611421414389188B807047F4
:10DF8000301A0020FFB581B006461746002420480D
:10DF900040781E2837D01E4800781D49497840181F
:10DFA000C4B21E2C02DB20461E38C4B214206043CB
:10DFB0001749091D0E5414206043401807611420AE
:10DFC00060434118029805C8CA6088601420604305
:10DFD0000F4A121D80180499418014206043801854
:10DFE0000A9981800025101F8078002805D1FFF74D
:10DFF000DDFE0546112D00D1002505484078401C66
:10E000000349487000E00425284605B0F0BD000033
:10E010002C1A002010B50020084908800849087013
:10E020000849087048708870002403E02046FFF714
:10E030008BFF641C1E2CF9D310BD000018190020A2
:10E040001A1900202C1A0020FFB59BB006460D4679
:10E05000144604200F21019102900391049008209E
:10E060000023042202210090104600F01DFE0790BC
:10E0700054480890002008220B2303900193029239
:10E0800004900420009002460146FF20249B00F0EB
:10E090000BFE099000200D2203900195029204903E
:10E0A0000320002306220D210090184600F0FCFDFD
:10E0B0000A900420002202900394019204900A2006
:10E0C00000900222002108461E9B00F0EDFD0B90FF
:10E0D0000020019002900390049003461622012133
:10E0E0000090084600F0E0FD0C900020082240233C
:10E0F000039001930292049007200E230122002135
:10E100000090084600F0D0FD0D901F2000040E90F6
:10E11000042000210122019102920B4600920391FA
:10E120000490104600F0C0FDC0B20690002001909F
:10E1300002900390049001200023024619460090AB
:10E14000184600F0B1FDC7B20420032202900490EB
:10E15000002303970192009002461946069800F0AA
:10E16000A3FD0F9004200F210822002304900193A7
:10E170000292039100900246084600F095FD10902F
:10E18000002001900290039004900820872302460B
:10E1900000210090182000F087FD119000201290BF
:10E1A00013901490159016901790189019900120C4
:10E1B00040051A9007A9304600F0FCFD059005982F
:10E1C0001FB0F0BD22102000F1B584B00498FFF715
:10E1D00056FA039000220B4B1046990300F0DAFF29
:10E1E000019100900398FFF7A3FA0446019B009A5F
:10E1F000FFF7C2F90646FFF7AFFA0290029805B0A2
:10E20000F0BD00000000354070B51D46049C0B00B9
:10E21000FFF7C9FC061804080C10141801230C4E53
:10E22000337013E002230A4E33700FE00323084ECD
:10E2300033700BE00423064E337007E00523044ED1
:10E24000337003E00623024E337000BF00BF70BD81
:10E2500008190020F8B50C4615461E46069F3B4699
:10E2600032462946204600F039FD104A0821002098
:10E27000C7DF00900098002801D000F01FF80120AF
:10E2800000040B49086001200A4908600A49086037
:10E2900000BF20BF40BF20BF064800680028F8D15B
:10E2A0000120054948608860F8BD0000451900203C
:10E2B00040150140041900200010014000BFFEE796
:10E2C000F8B53C480078002800D1F8BD3A4800680D
:10E2D000002801D1012000E00020054637480068F1
:10E2E000002801D1012000E00020064634480068E3
:10E2F000002801D1012000E00020074600BF002DCA
:10E3000014D1684651DF0446052C01D101250CE0EB
:10E31000002C06D000BF2B4A69212046FFF70CFDD8
:10E3200003E0254900980968884700BF002E1AD1EC
:10E3300025480088009069462448006860DF04464C
:10E34000052C01D101260DE0002C06D000BF1D4A8E
:10E3500080212046FFF7F0FC04E01C4800681749C4
:10E360000968884700BF002F19D118480268921C1D
:10E370000168491C0068C1DF0446052C01D1012752
:10E380000DE0002C06D000BF0E4A98212046FFF772
:10E39000D3FC04E00D480068094909688847002D4E
:10E3A00004D0002E02D0002F00D000E0A7E700BF6D
:10E3B00000BF8AE701090020301900202819002039
:10E3C0002C190020640801002419002020190020C5
:10E3D0000B48008CC0B2012810D10948808C00077E
:10E3E000000F0BD10648806AF0210840402805D173
:10E3F0000348C06A084201D1012070470020FCE7B1
:10E40000C00F00F01748008CC0B2012827D1154872
:10E41000808C0007000F22D11248806AF021084248
:10E4200005D11048C06A084201D1012070470D484B
:10E43000806AF0210840102805D10A48C06A0842C5
:10E4400001D10120F2E70748806AF0210840302816
:10E4500005D10448C06A084201D10120E6E7002046
:10E46000E4E70000C00F00F001468807800F01D1EB
:10E47000012070470020FCE79EB000BF00BF00BF36
:10E4800000201990189001201790169000201590E8
:10E4900004201490062013906420129000BF00BF47
:10E4A00000BF00200D9001200C9000200B9000BFB9
:10E4B00000235022FE490D2001F084FF099000BF87
:10E4C000099B002B07D000BFFAA2FF216B31184631
:10E4D000FFF732FC00BF00BF00BFFB4801F0A2FF06
:10E4E0000020FA49886001200004F9494860F84991
:10E4F000403948600520C003F449403108601120CC
:10E5000001218140F34A116000BF012033DFFEF793
:10E5100021FE0A210990FEF709FE0A31C803EB49E2
:10E52000403108600120EC490860EC49086000BFF8
:10E5300020BF40BF20BFE84800680028F8D1012074
:10E54000E6494860886001F0FDFD0D90FFF7C6FBCD
:10E550000746002F01D000BFFEE7012000F0FCFDC0
:10E560000A900A9800F0C0FC68E31698002809D0C9
:10E570000020169013980090149B159A12990A98EF
:10E5800000F0E2FB149B159A12990A9800F0EAFC3D
:10E59000002C04D1D248002801D1D148406800BFE6
:10E5A00000BF00BF00BF00BF00BF00BF0020C4DF2E
:10E5B0000746CC48002101604160CB4801604160C2
:10E5C00008210A9801F0ACFE0446012000058442AF
:10E5D00001D1012000E00020052109058C4201D174
:10E5E000012100E00021084301D10B9001E001204E
:10E5F0000B900B98002859D1099054E00B980028F3
:10E600004ED1034622460521009018A8007BFFF753
:10E6100021FE0820B5490870B24800210160416020
:10E62000B148016041608820AE490870012019900E
:10E63000002018900A46AD4801780A9800F096FD2F
:10E6400007460A9800F050FC13980090149B159A06
:10E6500012990A9800F078FB0746149B159A1299B4
:10E660000A9800F07FFC074608210A9801F058FE3E
:10E67000044601200005844201D1012000E0002071
:10E68000052109058C4201D1012100E00021084348
:10E6900001D10B9001E001200B90179801F070FE62
:10E6A0000998401C099009980A28A7DB0B980028B4
:10E6B0000DD10BE00020034622460521009018A84A
:10E6C000007BFFF7C7FD012001F05AFEF2E70020B2
:10E6D0001C9000BF1C98401CC0B21C901C980128C4
:10E6E00002D002287ED157E17E48002101604160BE
:10E6F0007D480160416001210A9801F011FE7849CE
:10E70000486002210A9801F00BFE754988600321D8
:10E710000A9801F005FE7249C8600D9800287DD066
:10E720004868FFF751FD72490890FEF790FD099087
:10E73000FEF7FEFF05460E466E490868FEF794FF99
:10E740006D490490FEF7C0FD0590FEF7F1FF0991B9
:10E7500008906A490868FEF787FF0121C907484009
:10E760000190FEF7E5FF2A46334603910290FEF73B
:10E770009BFE0022624B05910490FEF7FDFE07917F
:10E780000690099B089AFEF7DDFD05460E4600221D
:10E790005C4B28463146FEF787FE05460E4650493B
:10E7A0008868FFF711FD52490890FEF750FD099067
:10E7B000FEF7BEFF119110904E494868FEF754FFD6
:10E7C0004D490490FEF780FD0590FEF7B1FF0991D9
:10E7D00008904A494868FEF747FF0121C9074840A9
:10E7E000019000E0E8E0FEF7A3FF03910290119B87
:10E7F000109AFEF759FE0022414B05910490FEF756
:10E80000BBFE07910690099B089AFEF79BFD1191AC
:10E81000109000223B4B1199109800E089E0FEF720
:10E8200043FE119110902E49C868FFF7CDFC304986
:10E830000890FEF70CFD0990FEF77AFF0F910E90FD
:10E840002C498868FEF710FF2B490490FEF73CFD29
:10E850000590FEF76DFF0991089028498868FEF73A
:10E8600003FF0121C90748400190FEF761FF0391B2
:10E8700002900F9B0E9AFEF717FE0022204B059187
:10E880000490FEF779FE07910690099B089AFEF71F
:10E8900059FD0F910E9000221A4B0F990E98FEF71A
:10E8A00003FE0F910E900F990E98FEF71DFF2BE0BF
:10E8B000DC1900202E2E5C50434150696E745F6D50
:10E8C00061696E2E630000005908010000150140C7
:10E8D0004013014000E100E0041900200010014055
:10E8E000A81C0020341900203C19002044190020E5
:10E8F00000009644A419002000002041981900202F
:10E900000088C34000005940099011991098FEF703
:10E91000EBFE089028463146FEF7E6FE0790099880
:10E920000090042118A8007B089B079AFFF792FC2F
:10E9300031E0C3494868FFF747FCC2490890FEF739
:10E9400086FC0990FEF7A2FEBF490860BC498868B2
:10E95000FFF73AFCBB490890FEF779FC0990FEF7F7
:10E9600095FEB9494860B649C868FFF72DFCB5491E
:10E970000890FEF76CFC0990FEF788FEB2498860AB
:10E98000084680680090084643680421026818A879
:10E99000007BFFF75FFC0FE0159800280BD00D21DE
:10E9A0000A9801F0BDFCA64908610E210A9801F001
:10E9B000B7FCA349486100BF00BF00BF1C980228F4
:10E9C00000DA87E600201C9000BF00BF01201990EC
:10E9D0000020189013E19D4A1BA91AA8C1DF074621
:10E9E000002F7DD118A8007B80287AD197484078E5
:10E9F0004E2836D195484079022833DA93488079F9
:10EA000017909248007A00029049C97908431299F8
:10EA1000884208D08D48007A00028C49C9790843A1
:10EA2000129001201690894841791598814204D0AE
:10EA3000864840791590012016908448417A1498B0
:10EA4000814204D08148407A1490012016907F487A
:10EA5000817A1398814204D07C48807A13900120F7
:10EA6000169096E07948C1780C9881427ED177481B
:10EA7000007A7649C97909020843744989790907F6
:10EA8000090B084371494979891E8900704A515818
:10EA9000884201D0012000E000206C49497A090237
:10EAA0006A4A927A1143694A5279921E9200694BDE
:10EAB0009A58914201D0012100E00021084368D01A
:10EAC0006248007A6149C979090208435F49897936
:10EAD0000907090B08435D494979891E890001E04E
:10EAE0005EE059E05A4A50505848407A000257496F
:10EAF000897A084355494979891E8900554A5050F9
:10EB0000012152484079801E534A11544F4881795F
:10EB10004079801E82008018C01C4F4A11544B4817
:10EB2000C1794079801E82008018001D4A4A115424
:10EB30004648017A4079801E82008018401D464A6E
:10EB400011544248417A4079801E82008018801D0D
:10EB5000414A11543D48817A4079801E82008018D4
:10EB6000C01D3D4A11540D98002800E011E007D067
:10EB7000002314223849394801F068FB074608E0B1
:10EB8000002314223449354801F0C6F90746012014
:10EB90000D900120189002E00020189000BF2EE098
:10EBA0000020C5DF07460520C0032D49086001206D
:10EBB0002C4908602C49086000BF20BF40BF20BF1F
:10EBC000284800680028F8D1C4DF074601202749FB
:10EBD00008700A4608210020C7DF07460120C0034D
:10EBE0001F49086001201F4908601F49086000BFD5
:10EBF00020BF40BF20BF1B4800680028F8D11898EC
:10EC0000002800D1E7E60020C5DF07461998002854
:10EC100014D01798C00312490860012011490860F8
:10EC20001149086000BF20BF40BF20BF0D480068E9
:10EC30000028F8D101200C494860886095E4000064
:10EC4000A81C002000401C46B0190020BC19002060
:10EC500098190020A41900208419002070190020A0
:10EC60004015014004190020001001404519002002
:10EC700010B58A0005231B07072424021B198400F2
:10EC80001A5110BD01210522120707231B02D218B9
:10EC90008300D1507047000001218140014A9160FA
:10ECA0007047000000050050F0B50446059D204661
:10ECB000064696400E4330460646AE401E4330465A
:10ECC0000646079FBE40069F3E4330460646099FC4
:10ECD000BE40089F3E433046F0BD0000F8B50546F3
:10ECE0000C4616461F46052D10D101201449087008
:10ECF000084645702002000E88702004000EC8707F
:10ED00000C71002048718871C87117E001200D490D
:10ED1000087068B24870201240B2887060B2C87043
:10ED2000301240B2087170B24871381240B2887126
:10ED300078B2C87108220248FEF71EFAF8BD00003A
:10ED4000451900204D190020FFB583B005460E4639
:10ED50000C9F009731462846069B059AFFF774F9E9
:10ED6000029008201049087010480021016041609D
:10ED70000F48016041608A200C4908700A460A4821
:10ED80000178284600F0F2F901900298002806D098
:10ED90000198012803D10124204607B0F0BD0024CA
:10EDA00000200446F9E7000044190020341900202F
:10EDB0003C190020F3B583B00F46002002900420D8
:10EDC00042490870424800210160416041480160A9
:10EDD00041600325A801054614352D06002408E0EE
:10EDE0000320001BC1002846C84039490855601C53
:10EDF000C4B2042CF4DB364A34480178039800F09E
:10EE0000B5F90190002627E002960325A801029E8D
:10EE1000304305462806B1007958084305460024CA
:10EE200008E00320001BC1002846C84028490855B7
:10EE3000601CC4B2042CF4DB254A244801780398F2
:10EE400000F094F9019022480021016041602148BE
:10EE500001604160701CC6B2142ED5DB1E481F49EC
:10EE6000086001201E4908601E49086000BF20BFDD
:10EE700040BF20BF1A4800680028F8D10120194976
:10EE8000486088600325A801054614352806451CFE
:10EE900000240FE00320001BC1002846C8400C4995
:10EEA00008550A4609480178039800F05FF9019077
:10EEB000601CC4B2042CEDDB054A044801780398B9
:10EEC00000F054F90190019805B0F0BD44190020FC
:10EED000341900203C190020CC0C000040150140E2
:10EEE0000419002000100140F1B582B00027042071
:10EEF00018490870002426E02746092630033843C5
:10EF0000064630021449095D08430646002508E01C
:10EF10000220401BC1003046C84010494855681CBB
:10EF2000C5B2032DF4DB0D4A0A480178029800F0BF
:10EF30001DF9019009480021016041600848016005
:10EF40004160601C84B2012000038442D4DB01983C
:10EF5000FEBD0000441900200209002034190020E1
:10EF60003C190020FFB591B01E460820704908707A
:10EF700070480021016041606F48016041608C2051
:10EF80006C4908700A466A480178119800F0EEF85A
:10EF90000F900420012802D0042828D112E0012477
:10EFA000012500BFFF212141C807C00F002801D063
:10EFB000691CCDB2611CCCB2082CF3DB6800401C8C
:10EFC000C7B214E00124012500BF6200FF211141F6
:10EFD0008807800F032801D1691CCDB2611CCCB217
:10EFE000042CF2DB68002818401CC7B200BF00BF29
:10EFF0001398002802D001284AD14AE01298FEF75F
:10F0000033FB0390FEF794FB07910690701CFEF70C
:10F010002BFB0190FEF78CFB484A494B0391029071
:10F02000FEF742FA05910490079B069AFEF73CFA18
:10F0300009910890FEF790FB0B903846FEF71FFBF6
:10F040000A900B99FEF703F93E490C90FEF7A6F8DB
:10F050003D490D90FEF738F90E90472109060E98AC
:10F06000FEF7F5F80D90FEF72AFB384908600120FD
:10F07000374908603749086000BF20BF40BF20BF44
:10F08000334800680028F8D1012032494860886080
:10F090004AE01298FEF7E8FA0390FEF749FB079161
:10F0A0000690701CFEF7E0FA0190FEF741FB234A40
:10F0B000234B03910290FEF7F7F905910490079B0B
:10F0C000069AFEF7F1F909910890FEF745FB0B90BF
:10F0D0003846FEF7D4FA0A900B99FEF7B8F81949AA
:10F0E0000C90FEF75BF818490D90FEF7EDF80E90C6
:10F0F000472109060E98FEF7AAF80D90FEF7DFFAF1
:10F10000124908600120124908601249086000BFD6
:10F1100020BF40BF20BF0E4800680028F8D1012062
:10F120000C494860886000BF00BF0F9815B0F0BD63
:10F1300044190020341900203C1900207B14AE47EC
:10F14000E17A943F00007A4300007A444015014080
:10F15000041900200010014070B50446002201216E
:10F16000204601F06BF90546284670BDF8B5044607
:10F170000D461646064B32462946204601F0E0F978
:10F180000746002F01D00120F8BD0020FCE7000059
:10F190003C190020F0B51FB496B0054684460C46D5
:10F1A0001898199A009049005000630049084008D7
:10F1B0000493002D01D0012600E000269E19FE4B8D
:10F1C000F318FE4EB3420AD3009E5300002E00D027
:10F1D00001269F19F84EBF197610B74207D2604634
:10F1E0002146199B189AFEF7ADF81BB0F0BD009FA1
:10F1F00006463E4371D0F24EB44201D1002D6CD090
:10F200006746049E002F00D00127F719ED4EB74244
:10F2100006D8009F002F00D00127DB19B34207D981
:10F2200028462146199B189AFEF78CF81BB0F0BDB2
:10F2300000230793002C2EDAE34B98422BDAE34BA2
:10F24000984201DB022325E0DD4B984223DBE04BB3
:10F25000060DF318142B0EDD3426F71A009BFB4025
:10F260001E46BE40009FBE4215D1DE07F60F0223A8
:10F270009B1B07930FE0009E002E0CD11426F61A5C
:10F280000346F3401F46B340834204D1FE07F60F06
:10F2900002239B1B079363460B431FD1002A1DDAF1
:10F2A000002C04D00798022801D001280AD002209F
:10F2B000FEF70EFD002213461046C149FEF75CF929
:10F2C0001BB0F0BD0220FEF703FD2A4623460020B6
:10F2D000BB49FEF751F91BB0F0BD14E0009B002BB9
:10F2E00062D1B94B984221D1BA48844202D16046DA
:10F2F000002808D0B248814209DB002A10DB1898A8
:10F3000011461BB0F0BD0020AD491BB0F0BD002A76
:10F3100006DA11460122D207189851401BB0F0BD01
:10F32000AD497944086849681BB0F0BDA44EB042AD
:10F3300024D1002A1EDA002905D0994213D1604653
:10F34000002809D016E06046002875D19E49E20FDA
:10F35000D20711431BB0F0BD0020E20F0146D207D7
:10F3600011431BB0F0BD994204DA2A46234600201F
:10F37000314669E0284621461BB0F0BD994213DAB8
:10F3800001239B079A4204D12A4623461046194678
:10F39000EBE3924B9A4207D1231E05DB2846194620
:10F3A00001F016F91BB0F0BD63005B086646002E45
:10F3B00030D100290AD0844EB1422BD1002C0FDD70
:10F3C000002A1EDB002031461BB0F0BD0798022842
:10F3D00017D0002C15D0012813D1002C15DB10E01C
:10F3E000002C17DA0798002A09DB012803D0002037
:10F3F00075491BB0F0BD002079491BB0F0BD012854
:10F4000003D0002001461BB0F0BD00200121C90738
:10F410001BB0F0BDE617761C079F0D963E430CD03F
:10F42000704EB0427EDD704E704BB04216DD994298
:10F430000EDC002A1CDB28E05FE20120FEF748FC1E
:10F440000022134610461146FEF796F81BB0F0BD99
:10F450005B48814202DB002A0ADC16E0994202DAAC
:10F46000002A05DB11E0564B994217DD002A0CDD1E
:10F470000220FEF72DFC07215D4A00200907FEF758
:10F480005DFA49004908002251E20220FEF720FC03
:10F49000FEF704FC49004908002248E20022284601
:10F4A0002146FDF7F2FF012204460D46D243FEF746
:10F4B00045FA504A504BFDF7EEFF22462B46FDF72A
:10F4C000F3FF0022454BFDF7E6FF06460F462246B6
:10F4D0002B4610461946FDF7E7FF3B463246FDF73F
:10F4E000E3FF0646032209915207444B2046294672
:10F4F000FDF7DAFF0F460C90414A404B3046099920
:10F50000FDF7D2FF064602913E4A3F4B2046294670
:10F51000FDF7CAFF3246029BFDF7B7FF04460B46D4
:10F52000024600E011E0099139460C98FDF70AFF08
:10F5300000250E463B4628460C9AFDF7A6FF2246BC
:10F54000099BFDF7A8FF0B468EE10124002024054E
:10F55000A14207DA352228461946FEF7EFF905469B
:10F560003420C0430A1512181948101804900803D3
:10F57000000B134906460E432449884201DC002053
:10F5800003E02349884202DA0120074604E0049898
:10F590000027401C361B04901E49F80079440F9048
:10F5A00008184368026828463146FDF76EFF01914E
:10F5B00019490C90794431E0FFFF1F00FFFF0F0055
:10F5C0000000F03F0000E0FF0000F07F000040433B
:10F5D00001FCFFFF0000F0BF121600000000E03F3A
:10F5E0000000F0FF0000E0410000F043FFFFEF3FAC
:10F5F00001030000555555555555D53F4715F73F63
:10F60000FE822B6544DF5DF80BAE543E8E980300FE
:10F610007AB60B0010130000F81200000F980818BB
:10F620004368026828463146FDF78CFE02460B46C9
:10F630000020FE49FDF7A0FF09910E90019B0C9A56
:10F64000FDF732FF05910A900B91F94801217844AA
:10F6500000681290701049070843B904401801214E
:10F66000C9044718F3490F98794408184368026899
:10F67000002439461298FDF708FF2A463346FDF765
:10F680000AFF02460B4620460B99FDF70DFF054683
:10F6900000913B462046129A0B99FDF705FF019B0E
:10F6A0000C9AFDF7F8FE2A46009BFDF7EEFE099B3B
:10F6B0000E9AFDF7F9FE109105990A9A0E900B46E5
:10F6C0001046FDF7F1FE05460246DB480E460B46A6
:10F6D00006217844FEF78CFA07462A4633460691FF
:10F6E00010461946FDF7E0FE3A46069BFDF7DCFEA4
:10F6F00005460E462046059B0A9A0B99FDF722FE09
:10F70000109B0E9AFDF7D0FE2A463346FDF71AFEEF
:10F71000019106900B9922460B461046FDF7C4FE58
:10F72000C64D00222B4603910090FDF70BFE019B76
:10F73000069AFDF707FE0F4622462B462046FDF7A8
:10F74000A4FE039B009AFDF7A0FE019B069AFDF71D
:10F75000A2FE05460E4622463B4610460B99FDF793
:10F76000A3FE01910C9028463146059B0A9AFDF7AD
:10F770009BFE05460E463B46224610990E98FDF725
:10F7800093FE33462A46FDF7DDFD06460F460B463F
:10F79000024601990C98FDF7D5FD00200D46044660
:10F7A000019B0C9AFDF771FE3B463246FDF773FE56
:10F7B00006460F4607225207A14B20462946FDF771
:10F7C00073FE019102909F4A9D4B30463946FDF7EA
:10F7D0006BFE06460F469C4A9C4B20462946FDF789
:10F7E00063FE32463B46FDF7ADFD994A04467A4436
:10F7F0000F981018436802682046FDF7A3FD059195
:10F800000A900498FEF7B0F807460391059B0A9A00
:10F8100001990298FDF796FD8E4A04467A440F98A6
:10F820001018436802682046FDF78CFD3A46039B9A
:10F83000FDF788FD00250E463A462846039BFDF756
:10F8400024FE854A04467A440F98101843680268DB
:10F850002046FDF71AFE019B029AFDF716FE059B56
:10F860000A9AFDF718FE0B4600210A91079A0D9996
:10F870006E4C521E114301D1784C0A910022199905
:10F88000049202460F461898FDF70EFE009007916D
:10F890003B46049A19991898FDF7F7FD2A46334616
:10F8A000FDF702FE079B009AFDF74CFD09911090B1
:10F8B0002A46334639460498FDF7F6FD06460F46BC
:10F8C000099B109AFDF73EFD654A0D46914224DBE7
:10F8D0005242AA18024310D132463B46FDF7D5FDED
:10F8E000049003915F4A604B09991098FDF72AFD37
:10F8F000039B049AFEF74CF82FD20220FEF7E8F99A
:10F9000007215A4A00200907FEF718F8490049085C
:10F91000E20FD20711431BB0F0BD6A00544B5208EE
:10F920009A421AD3534AAA1802430CD102E0114357
:10F930001BB0F0BD32463B46FDF7A7FD099B109A70
:10F94000FEF726F809D80220FEF7C2F9FEF7A6F95D
:10F9500049004908E20FD207E9E7680000234008A0
:10F9600045490493020D454B5218984223DD521C21
:10F9700001200005D04040194200520D5118404A64
:10F980007A441268034694463E4ACA4093430203AF
:10F990000120120B000510181422511AC8400490BF
:10F9A000002D01DA40420490624630463946FDF7A8
:10F9B0006CFD06460F4632463B4609991098FDF706
:10F9C000C1FC00200D4602462F4B0E90FDF76CFD4A
:10F9D00001910C902D4A2E4B29460E98FDF764FD9F
:10F9E0000791129032463B4629460E98FDF74DFD91
:10F9F000099B109AFDF74FFD264A274BFDF754FD52
:10FA0000079B129AFDF79EFC07460B46024609919A
:10FA100001990C98FDF796FC0E460546019B0C9A41
:10FA2000FDF733FD3A46099B38E000000000F03F47
:10FA3000E6120000441200000A1200000000084014
:10FA400009C7EE3FFD033ADCF5015B14E02F3EBE33
:10FA5000DE100000A0100000761000000000F0BFD3
:10FA600000009040FE822B654715973C0103000083
:10FA700000CC904000346F3F01FCFFFF0000E03FEE
:10FA8000B40F0000FFFF0F00432EE63F396CA80CB7
:10FA9000615C20BEEF39FAFE422EE63FFDF7FBFC2B
:10FAA0002A4633460991109010461946FDF7FCFC92
:10FAB00002460E902F480F460B4605217844FEF76C
:10FAC00097F83B460E9AFDF7EFFC2A463346FDF7C2
:10FAD000E2FC0746089128463146099B109AFDF73B
:10FAE000E3FC099B109AFDF72DFC012303910C9078
:10FAF00000229B0738460899FDF7C7FC01910E903C
:10FB00003A4628463146089BFDF7CEFC019B0E9AEB
:10FB1000FDF732FD039B0C9AFDF7B7FC2A463346EE
:10FB2000FDF7B3FC0022144BFDF7B5FC0646049824
:10FB30000D46000541190915002911DC30462946FA
:10FB4000049AFDF7FBFEFEF73DF8042801D1FEF70D
:10FB5000A5F830462946049AFDF7F0FE064600E077
:10FB600029180B46324621460A98FDF79DFC1BB02A
:10FB7000F0BD0000500E00000000F03F3CB5034611
:10FB800000BF20480078002801D108203CBD00BFFC
:10FB9000002B01D10E20F9E7002A01D10E20F5E754
:10FBA0001868022805D218680001174C2058002850
:10FBB00001D10720EAE75C68186801940090019C75
:10FBC00018680001104D4019008948432018019021
:10FBD000009800012C4600194089009C24016419FA
:10FBE00024896043009C2401641964680019019C05
:10FBF000A04201D80720C9E7019C0098546010601A
:10FC00000020C3E700090020881C002070B5FEF723
:10FC100001FA00202D4908802D484069401C08D079
:10FC200001221207126991B2294A5069FDF768FA58
:10FC300002E0012000074069C01E0121090709698F
:10FC400089B248432349086000202349088000BF47
:10FC50000DE000210201214B99500201D2181181BF
:10FC60000201D21891810201D2185181401C022850
:10FC7000EFD308201A49087015484069401C08D085
:10FC800001221207126991B2114A5069FDF738FA40
:10FC900002E0012000074069401E012109070969AF
:10FCA00089B24843064601200007006981B2304608
:10FCB000FDF726FA054620DF0446002C04D101207A
:10FCC0000849887008490870204670BD1019002046
:10FCD000001000101419002018190020881C0020A2
:10FCE0001A1900202C1A002000090020F8B5074638
:10FCF0000C4615461E4600BF2F480078002801D14B
:10FD00000820F8BD00BF002C01D10E20F9E7002F1C
:10FD100001D10E20F5E72068022805D220680001F5
:10FD200026490858002801D10720EAE72068000189
:10FD300022494018408921680901204A8918098907
:10FD40004843216809018918496840186168884258
:10FD500001D80720D5E7002D06D0206800011749FB
:10FD600040180089A84201DA0720CAE7A8192168CB
:10FD70000901124A89180989884201DD0720C0E774
:10FD80003846FEF771FB002804D03046FEF76CFBC6
:10FD9000002801D11020B4E76068FEF765FB002859
:10FDA00001D11020ADE7606881192A463846FDF779
:10FDB000E3F90020A5E7000000090020881C0020CE
:10FDC000F8B504460D4600BF4E480078002801D122
:10FDD0000820F8BD00BF002C01D10E20F9E7002D4E
:10FDE00001D10E20F5E72068002801D10E20F0E7B0
:10FDF000A08801210907096989B2884202DCA0882C
:10FE0000102801DA0720E4E7E08800281DD03E48EA
:10FE10004069401C08D001221207126991B23A4A87
:10FE20005069FDF76DF902E0012000074069401EAE
:10FE300001210907096989B24843E188A288514331
:10FE4000324A12688918884201D20720C1E7207916
:10FE50008007800F01D00720BBE72D4800880228CB
:10FE600001D10420B5E72A480088286027480068A7
:10FE70006860274909880901264A89186868486026
:10FE800023490988090120685050A0882049098821
:10FE9000090189180881E0881D4909880901891824
:10FEA00048810027A688E1884E4300BF781C87B2AE
:10FEB00001200007006980B2B04205D2012000078E
:10FEC000006980B2361A00E00026012000070069B0
:10FED00080B20E49096840180C49086001200007EB
:10FEE000006980B2B042E1D909480088000109499F
:10FEF0004018878106480088401C0549088000207A
:10FF000067E700000009002000100010141900200D
:10FF100010190020881C0020F8B504460E4615462E
:10FF20001F4600BF2F480078002801D10820F8BDE7
:10FF300000BF002E01D10E20F9E7002C01D10E20C8
:10FF4000F5E72068022805D22068000126490858F4
:10FF5000002801D10720EAE7206800012249401863
:10FF6000408921680901204A891809894843216884
:10FF700009018918496840186168884201D807203A
:10FF8000D5E7002D06D020680001174940180089E8
:10FF9000A84201DA0720CAE7E81921680901124AD4
:10FFA00089180989884201DD0720C0E73046FEF73D
:10FFB0005BFA002804D03846FEF756FA002801D133
:10FFC0001020B4E76068FEF74FFA002801D1102036
:10FFD000ADE72B463246214602200097FDF7D2FFBF
:10FFE000A5E7000000090020881C0020FEB505469A
:10FFF00000265048807801287ED100204D49887025
:020000040001F9
:100000004D480078082811D1022D03D100204A491B
:10001000087002E0002049490870FDF781FF06469C
:10002000002E02D03046FDF789FEFEBD022D02D023
:10003000032D79D174E03F480078142148433D49AD
:10004000091D44183E480088401C3D49088020781E
:10005000022807D10846008880026188884201DBB7
:10006000012000E0002007462078052805D132480D
:100070000078072801D1012000E0002002902078BC
:10008000042805D12C480078072801D1012000E080
:1000900000200190207804280BD129480088800294
:1000A0006188884205DB24480078002801D10120BE
:1000B00000E0002000900298002807D10198002855
:1000C00004D10098002801D1002F1FD000201A4928
:1000D00008703046FDF732FE16490878FDF734FF08
:1000E00000201749088013484078401E1149487085
:1000F00008460078401C00E019E0087008460078C7
:100100001E2803DB084600781E380870FDF708FF3C
:100110000646002E02D03046FDF710FE05E003E053
:100120000D20FDF70BFE00E000BF00BF00BF00BFC9
:100130007BE700002C1A00201A190020000900207B
:100140001819002070B50024142039498880012036
:10015000C88038480860FFF759FD054636493448DD
:10016000FFF72EFE0546354A00213348FFF706FD0E
:1001700005460023142231493148FFF7B7FD0546F3
:100180002F480078012800D100E000202C49497850
:10019000012900D100E0002108432949897801297B
:1001A00000D100E0002108433FD0012424484079D9
:1001B00023490979090208432149C9780907090B2C
:1001C0000843204908601E48807900021C49C9790B
:1001D00008431D4908601A48807A1949497A09027A
:1001E00008431749097A0907090B0843154948606C
:1001F0001348C07A00021249097B0843124948603B
:100200000F48C07B0E49897B090208430C49497B92
:100210000907090B08430B4988600948007C000264
:100220000749497C084308498860204670BD0000A2
:100230006019002009E200006819002070190020F0
:100240008419002098190020A4190020F8B504464C
:100250000E4615461F4600BF2F480078002801D1E2
:100260000820F8BD00BF002E01D10E20F9E7002CB8
:1002700001D10E20F5E72068022805D22068000190
:1002800026490858002801D10720EAE72068000124
:1002900022494018408921680901204A89180989A2
:1002A00048432168090189184968401861688842F3
:1002B00001D80720D5E7002D06D020680001174996
:1002C00040180089A84201DA0720CAE7E819216826
:1002D0000901124A89180989884201DD0720C0E70F
:1002E0003046FEF7C1F8002804D03846FEF7BCF8C7
:1002F000002801D11020B4E76068FEF7B5F80028A7
:1003000001D11020ADE72B4632462146052000974B
:10031000FDF738FEA5E7000000090020881C00203A
:10032000F0B587B007460C46042012490870012634
:10033000B0012043C6B21048067002460846017854
:100340003846FEF713FF0546002001900290039007
:1003500004900820094A0090D378917850780822B8
:10036000FEF7A2FC0690002D02D1284607B0F0BD92
:100370000698FBE744190020341900203C1900209E
:10038000C1030A4A11600121094A1160094A11603A
:1003900000BF20BF40BF20BF054909680029F8D130
:1003A0000121044A516091607047000040150140EE
:1003B00004190020001001400B4611461846FDF7B5
:1003C000F3FC0000FFB581B00C4616461F46002C1A
:1003D00002D1072005B0F0BD2046FEF745F8002801
:1003E00001D10720F6E70A4804600A4806800A4857
:1003F00007600A49019810DF0546002D01D0284604
:10040000E8E7012006490870162026DFE2E7000031
:1004100020190020241900201C190020B903010014
:10042000010900200146002901D10E207047024831
:1004300001600020FAE7000030190020F7B50646F9
:100440000F46002E01D13C4800E03C480446002EF7
:100450001FD11E20FEF716FC0120FEF713FC002121
:100460001D20FEF705FC0020FEF70CFC1E200521D8
:100470000902611888600120052109026118C8601D
:100480001D2005210902611808610020FEF704FC07
:100490001EE01E20FEF7F6FB0120FEF7F3FB002115
:1004A0001D20FEF7E5FB0020FEF7ECFB1E200521DA
:1004B0000902611888600120052109026118C860DD
:1004C0001D2005210902611808610020FEF7E4FBE8
:1004D000012000070521090261184862002F06D09B
:1004E000012F06D0022F06D0032F08D105E00025EA
:1004F00007E0022505E0042503E0062501E00025CC
:1005000000BF00BF0298002806D001202843152113
:1005100089016118486103E01520800120184561B8
:100520000021FF2009300151012005210902611835
:1005300008602046FEBD0000003000400040004042
:10054000FFB581B000270026019D1F48019D85420F
:1005500001D1002400E0002400BF0120A0401B497D
:10056000C86000BF27E00398805D05210902691873
:10057000C86100E07F1CFF2009304059002803D1EA
:10058000032000038742F5D303200003874205D1EF
:100590002046FEF781FB002005B0F0BD0021FF20C2
:1005A000093041510520000228188069C1B2049821
:1005B0008155701C86B202988642D4DB2046FEF735
:1005C0006BFB0120E8E70000003000400005005010
:1005D000F8B506460C46FDF701FA05000F4600D0B7
:1005E0000120014349000B484908411AC90F0DD0A9
:1005F000002E01D0012100E000210C4361004908D8
:10060000401AC00F02D10120FDF762FB284639468F
:10061000F8BD00000000F07FFFB583B004460F4630
:10062000154603268A48007800280BD1002D06D1F4
:100630000698002803D102208549087002E00120B5
:1006400083490870824800780300FDF7ACFA07FC84
:1006500005304D82B7D4FC007E484069401C08D06C
:1006600001221207126991B27A4A5069FCF748FDDB
:1006700002E0012000074069401E012109070969C5
:1006800089B2484302900120000700690004820CEF
:1006900001200007006980B278430146029821DFFB
:1006A0000646002E02D1022069490870CCE0384687
:1006B00020DF0646002E16D1002D11D10698002805
:1006C0000AD12078042803D10720614908700AE084
:1006D00005205F49087006E004205D49087002E0CB
:1006E00003205B490870AFE05A484069401C08D0BD
:1006F00001221207126991B2564A5069FCF700FDB7
:1007000002E0012000074069401E01210907096934
:1007100089B24843012109070290096989B27943E6
:1007200008462A46029921DF0646002E10D1069877
:1007300000280AD12078042803D1062044490870F3
:1007400006E005204249087002E004204049087094
:100750007AE040484069401C08D001221207126923
:1007600091B23C4A5069FCF7CBFC02E00120000743
:100770004069401E01210907096989B24843A9005F
:10078000401861884018012109070290096989B25F
:100790007943AA00891862888818069A029921DF8D
:1007A0000646002E09D12078042803D106202849C6
:1007B000087002E005202649087045E00120000786
:1007C000006980B27843AB00C0180290608882084C
:1007D0002169029821DF0646002E0BD1002D06D19B
:1007E0000698002803D107201949087002E0062066
:1007F0001749087028E017484069401C08D00122BA
:100800001207126991B2134A5069FCF779FC02E0B1
:10081000012000074069401E01210907096989B2CA
:100820004843019001200007006981B20198FCF75C
:1008300067FC029020DF0646002E02D10720044903
:10084000087001E0FFE700BF00BF304607B0F0BD11
:100850001A1900200010001010B504462046FFF7BA
:10086000C5FB10BD433A5C4B65696C5C41524D5C05
:100870004465766963655C4E6F726469635C6E7231
:100880006635313432325C536F757263655C736404
:100890005F636F6D6D6F6E5C736F667464657669B0
:1008A00063655F68616E646C65722E6300000000B2
:1008B000000000000000F03F000000000000F83FD2
:1008C00000000000000000000000004003B8E23F0C
:1008D000000000000000000006D0CF43EBFD4C3EBE
:1008E000033333333333E33FFFAB6FDBB66DDB3FB3
:1008F0004D268F515555D53F01411DA96074D13FFB
:1009000065DBC9934A86CD3FEF4E454A287ECA3FF4
:100910003E5555555555C53F93BDBE166CC166BF76
:100920002CDE25AF6A56113FF16BD2C541BDBBBE6F
:10093000D0A4BE726937663E0000000000000000CF
:100940005009010000090020841000007EDA000038
:10095000220001301362630065BE012026425C481C
:10096000A00321E42031A106300684012363012184
:100970001016200B4358C0FE43C0447A7E200BC0A3
:10098000C0C0C8FF43ED44082005F6FF43EC081043
:1009900023C8FF412394D043EE44D243EF44205A6E
:1009A000706071617868027AF343C7FE41EB455A83
:1009B00021DF4601512A100E4355ED45EC51F4411B
:1009C0002388EA45F5063023E9451D414358EA21CD
:1009D00099E95046EB44A902EB5943CAFE415CA891
:1009E00003C05AEB45EB41F245F62B32F72B021AC6
:1009F0001F2B5008F34502FFFFFF470150067C7D87
:100A00004541020CA007F07C6D45416C11E26C1E63
:100A1000D10F6129032D024F01032D024E01032D39
:100A2000025601032E025E011006026AFD4340C910
:100A30001405EB457AF9412405EB2199EABE86F1CC
:100A4000BE1405ED45C041D01021F8FF43E9446ACA
:100A50001D43AB01EA588E03EC531D501F44EC5369
:100A6000ED53E943EC58ACE68E262372F9352903A1
:100A7000213522FC35100F1D431F59E943ED53EC7E
:100A80005358ACF27A5D22C9287004E744E82C136D
:100A90001F43EE217722CF65138E070A22CB6F13F7
:100AA000405D3C180421CAE84A400C1D45F843ABA0
:100AB0000CC041ED53532E6011E753C041E853E79A
:100AC0005341EC45E9435CACD33E13E8410F12A817
:100AD0002A1004E84353371808445943ABEBC84382
:100AE00065100F447A8A1BC043405D5D9015C84570
:100AF000C94F1012AA0BCA45CB45CC45CD45CE45B2
:100B0000CF450002C05813EA448012060A21091199
:100B10007232130B134E5096100408C0430A210B77
:100B200049AC500E4E4EE9519101235AEA43E95126
:100B30009208529308529408529508529608529778
:100B4000301302E99221D51405027AFA417E20176A
:100B5000E7455AFB43E77521CA65D0455AFC43E790
:100B600021CAD1455AFD08180FD245796902D7FE2E
:100B700043E7455DAD015D7D280E1F431D44C04325
:100B8000EC51ED515DAAF2D501FF0101FF0101FF1A
:100B90000101FF0101FF0101FF0101FF0101FF014F
:100BA00001FF0101FF0101FF0101FF01A10100049B
:100BB0003D0201034282000103690100017324F434
:040BC0006E000000C3
:040000050000D0C166
:00000001FF
