:020000040000FA
:10C0000070210020F5C0000007C1000009C1000038
:10C010000000000000000000000000000000000020
:10C020000000000000000000000000000BC1000044
:10C0300000000000000000000DC100000FC1000062
:10C0400011C1000011C1000011C1000011C10000A8
:10C0500011C100000000000011C1000011C100006A
:10C0600011C1000011C1000011C1000011C1000088
:10C0700011C1000011C1000011C1000011C1000078
:10C0800011C100006DC9000011C1000011C1000004
:10C0900011C1000011C1000011C1000011C1000058
:10C0A00011C1000011C100000000000000000000EC
:10C0B0000000000000000000000000000000000080
:10C0C0000348854600F0C0FB0048004729CE000029
:10C0D00070210020401E00BF00BF00BF00BF00BF96
:10C0E00000BF00BF00BF00BF00BF00BF00BFF1D155
:10C0F00070470000074802680F210A4302600648A3
:10C10000804706480047FEE7FEE7FEE7FEE7FEE75A
:10C11000FEE700002405004095C90000C1C00000F2
:10C1200070B500242546002801DA01244042002988
:10C1300001DA0125494200F071FAAC4200D04042D8
:10C14000002C00D0494270BD0549064A086850439A
:10C15000054A801808604008704701490860704728
:10C16000241900206D4EC64139300000024670B5DA
:10C170004A40D30FDB0740002DD04A002AD0010EE1
:10C18000140E091900021202400A520A8418E5012D
:10C1900004465443000A120A2E045043A4194219BB
:10C1A000200CC543AA18120C01257F39521CAD037F
:10C1B00052191204240400D0521C104301D4400030
:10C1C000491EC2B20C06C0092018401C4008802A33
:10C1D00002D003E0002070BD40084000002900DAD2
:10C1E0000020184370BD0000F0B5074608465840CF
:10C1F00087B0C00F049048000E4659004008490817
:10C20000BC1A884105D2384631461E4617460B46B1
:10C21000024658004008104303D13846314607B063
:10C22000F0BD300D039040055900400D490D0590BB
:10C23000401A029040286DDA18030121000B09050D
:10C240000843019004980092002805D001995242B9
:10C250000020884100920190029840210A1A019919
:10C26000009800F0F1F905460C46684607C800F052
:10C270000CFAC0197141039A0E0D0023D7175640CE
:10C280001A467A40164340D0049A002A29D0029ACE
:10C29000012A039A11DC1205C01A914101263605C4
:10C2A000001C7141D20F059ED207009301920296A5
:10C2B0002A46234600F04BFAB1E71605224A0F46FC
:10C2C000B218C01AB74101210905001C4F410018DE
:10C2D0007F41114618187941E20F10436D196441EE
:10C2E00013E0E2076D0815436408C2071443039A7C
:10C2F00001261205C01A91413605001C7141CE0776
:10C30000400830434908C01851412A46234600F0EE
:10C3100011FA84E7049801224000C117121A002381
:10C320008B4104983146C417381AA141EFE730B465
:10C330000124E407634030BC56E730B40124E4072D
:10C34000614030BC50E700000000E0FFF0B51FB4D2
:10C3500088B00B990998002448400999C00F4900FA
:10C3600049080991C0070B990090490049080B91B1
:10C3700009990898A646084303D00B990A980843E0
:10C3800003D1002001460DB0F0BD09980124400002
:10C39000420D4800410D099824050003000B20437D
:10C3A00009900B980003000B20430B9050181A497A
:10C3B0004018002201901446104601E0032801DADB
:10C3C000034600E003239C46C11A0AAE0AE05F0060
:10C3D00008ADED5B4F00F75B7D430027AA187C4159
:10C3E0005B1E491C6145F2DD410004AB5A52210439
:10C3F000120C0A43240C401C0828DFDB0198029031
:10C400000099704601910090059B049A079906983F
:10C4100000F09DF9B7E700000DFCFFFFF0B50C46FA
:10C420005C4085B0E40FE40703944C0000266408E8
:10C4300059009446490802460296224321D062469A
:10C440000A431ED06200570D4A000E032303550D08
:10C45000012402462C492405781B1B0B360B40187F
:10C4600023432643614600901C46501AB44103D32F
:10C470000098401C009002E0921800985B41002850
:10C4800003DA0020014605B0F0BD002001210905B6
:10C490000746864611E064461D46141BB54106D387
:10C4A0006546521BB341744607430C43A646CD076D
:10C4B00040084908284392185B4105460D43EAD1DC
:10C4C0001046184313D06046194650407140084347
:10C4D00003D100220123DB0709E06046101AB341B3
:10C4E00002D20122002302E00122D243531000981D
:10C4F00074460105381C6141029C039D0019694185
:10C5000000F018F9BFE70000FD030000C217C10FDB
:10C51000504010B54018CA079623002100F0D0F80B
:10C5200010BD10B500229623114600F0C9F810BDC9
:10C530000EB5C217C10F5040CA0740180021054B65
:10C540000293019200910A460B4600F000F903B0F5
:10C5500000BD000033040000410040020122400AF7
:10C56000D205090E80187F2901DA0020704796292C
:10C5700003DC9622511AC8407047963988407047AC
:10C580004A0009030123090B1B051943094B10B588
:10C59000520D9A4201DA002010BD064B34339A4204
:10C5A00003DC9A1A00F060F810BD03495118884066
:10C5B00010BD0000FF030000CDFBFFFFC20FD2073C
:10C5C000400040080BD0C10D0723DB01C918400211
:10C5D0000905400A1143C208400711437047002073
:10C5E00001467047CB0FDB07490010B549080246EA
:10C5F0000A4307D00A0D07240903E401090B121BA3
:10C60000002A01DC002010BDC900440F0C43C1000A
:10C61000E018D205801800F04BF810BD30B50B467D
:10C62000014600202022012409E00D46D5409D420C
:10C6300005D31D469540491B254695404019154692
:10C64000521E002DF1DC30BD10B5202A04DB01465E
:10C65000203A9140002010BD914020239C1A0346AF
:10C66000E3401943904010BD10B5202A04DB084672
:10C67000203AD040002110BD0B46D340D0402024AA
:10C68000A21A91400843194610BD10B5202A06DBB6
:10C69000CB170846203A1041C1170B4306E00B4662
:10C6A0001341D0402024A21A91400843194610BDDE
:10C6B000002904DA401C490001D1400840007047BD
:10C6C00070B40024050C05D11024000402D1002907
:10C6D00022D01124050E01D108340002050F01D12A
:10C6E000241D0001850F01D1A41C8000002801DB5E
:10C6F000641C4000002908D020252E1B0D46F54063
:10C70000A14000D00121294308431B1B0106DB1D6A
:10C71000000A002B02DA002070BC7047DB051818F5
:10C7200080180029F8DA401C4900F5D170BC400897
:10C730004000704710B5002B08DA0024401C61410E
:10C7400092185B411A4301D14008400010BDF0B57A
:10C750001FB482B005460C0003D0084600F036F93D
:10C7600002E000F033F920300246009021462846CE
:10C77000FFF76AFF049B059A04460F4618431143CE
:10C78000084303D12046394607B0F0BD1846104390
:10C7900017D0009840210A1A18460599FFF764FF40
:10C7A00005460E46009A05990498FFF74DFF084389
:10C7B00001D0012000E00020C11705430E432C43A7
:10C7C000374300990E986305401A7905E40A0A3048
:10C7D00000220C43FD0A002802DA00200146D3E7BC
:10C7E0000105101969410C9C0D9D00196941FFF765
:10C7F000A1FFC9E770B54B005B0803430BD04B00AA
:10C800005C0D002633466542B341D417AD1AA341EF
:10C8100002DB0020014670BD12053018514170BD89
:10C8200010B5002904DB0124E40740428C41214675
:10C83000002B04DB1C460123DB075242A341994233
:10C8400000D1904210BD0000064C0125064E05E0C7
:10C850002046E36807C82B4398471034B442F7D307
:10C86000FFF732FC48E2000058E20000FEB500236A
:10C870001A461B1A8A4103DB0020014603B0F0BDB3
:10C880004A000D0301212D0B0905520D0D43D1075F
:10C8900002D100186D41521E5110FF31FF3101319C
:10C8A000002704463E463846009701910246012182
:10C8B00000200905FFF7D8FEC3197141F818324668
:10C8C00084468E464A4161462846611A904104D307
:10C8D0006046241A954176461F46241900986D41FA
:10C8E000401C00903428E1DDF91930467041091BE5
:10C8F000A84103D20022D243134601E0002213468E
:10C9000001980105381C7141FFF714FFB6E770B5B7
:10C910008D180478401CA207920F01D10278401CA8
:10C92000231106D10378401C03E00678401C0E70EA
:10C93000491C521EF9D1002B14D002780C26401C41
:10C940008A1A34400C2C03D0A401121B9B1C07E054
:10C950000478401C2402F8E71478521C0C70491C1F
:10C960005B1EF9D5A942D4D3002070BD06480068EB
:10C97000002807D00020044908600449086001200D
:10C9800003498860704700004011014000190020F1
:10C990000010014010B500F015FA002805D0074836
:10C9A00007494860C8130749886100F0F1F9002879
:10C9B00002D001200449886010BD0000DFFF07C0DD
:10C9C00000050040006C0040000600402021020CE1
:10C9D00001D010211046020A01D008391046020980
:10C9E00001D0091F1046820801D0891E1046420856
:10C9F00001D0881E7047081A704700004900CA021B
:10CA0000104300D004204A0D01D001221043054AF2
:10CA1000490D914201D102210843012800D105208E
:10CA200070470000FF070000F8B504464F1EC8001D
:10CA30000838211815461E46086849683A460623F4
:10CA40009A4310D02A463346FFF780FC3A46D2007C
:10CA5000083AA3181A687F1E5B68FFF7C5FB062219
:10CA60003B469343EED1022F23D0042F11D0062F43
:10CA70002FD12A463346FFF769FCE36AA26AFFF723
:10CA8000B3FB2A463346FFF761FC636A226AFFF76D
:10CA9000ABFB2A463346FFF759FCE369A269FFF76F
:10CAA000A3FB2A463346FFF751FC63692269FFF76F
:10CAB0009BFB2A463346FFF749FCE368A268FFF771
:10CAC00093FB2A463346FFF741FC63682268FFF771
:10CAD0008BFBF8BD034A10B500201107FFF78AFE53
:10CAE00010BD000001FDFFFF02E008C8121F08C1D1
:10CAF000002AFAD170477047002001E001C1121FDF
:10CB0000002AFBD17047000001490860704700000F
:10CB10002819002010B500231A4620211846C2DF2C
:10CB20000446002C01D0012010BD02230122114631
:10CB30000020D3DF0446002C01D00120F4E742217D
:10CB40000020CDDF0446002C01D00120ECE707498E
:10CB50000020D1DF0446002C01D00120E4E7002CA6
:10CB600001D00120E0E70020DEE7000033030000F1
:10CB7000F0B59BB005460C4604200F2101910290B0
:10CB80000391049008200023042202210090104603
:10CB900000F0C6FA079054480890002008220B23A2
:10CBA000039001930292049004200623024601465A
:10CBB0000090FF2000F0B4FA099000200D220390AD
:10CBC0000194029204900320002306220D2100907C
:10CBD000184600F0A5FA0A90042000210191029065
:10CBE000039104900A20042302220090084600F0DA
:10CBF00097FA0B9000200190029003900490034656
:10CC0000162201460090012000F08AFA0C900020C4
:10CC100008224023039001930292049007200023EE
:10CC2000012219460090184600F07AFA0D901F2054
:10CC300000040E90042000210122019102920B4673
:10CC4000009203910490104600F06AFAC6B20020E8
:10CC5000019002900390049001200023024619469F
:10CC60000090184600F05CFAC7B20420032202903C
:10CC70000490002303970192009002461946304623
:10CC800000F04EFA0F9004200F2108220023049098
:10CC900001930292039100900246084600F040FA88
:10CCA00010900020019002900390049008208723A8
:10CCB000024600210090182000F032FA1190002066
:10CCC0001290139014901590169017901890199038
:10CCD000012040051A9007A9284600F0B3FA0690F3
:10CCE00006981BB0F0BD000022102000F1B584B002
:10CCF0000498FFF716FC039000220B4B1046990393
:10CD000000F046FC019100900398FFF757FC0446A1
:10CD1000019B009AFFF782FB0646FFF763FC029037
:10CD2000029805B0F0BD000000003540F8B50C4693
:10CD300015461E4632462946204600F00BFA0F4A99
:10CD400008210020C7DF0746002F01D000F01EF8A1
:10CD5000012000040A49086001200A4908600A49C4
:10CD6000086000BF20BF40BF20BF06480068002801
:10CD7000F8D10120044948608860F8BD15190020E9
:10CD800040150140001900200010014000BFFEE7DF
:10CD90000B48008CC0B2012810D10948808C0007D4
:10CDA000000F0BD10648806AF0210840402805D1C9
:10CDB0000348C06A084201D1012070470020FCE707
:10CDC000C00F00F01748008CC0B2012827D11548C9
:10CDD000808C0007000F22D11248806AF02108429F
:10CDE00005D11048C06A084201D1012070470D48A2
:10CDF000806AF0210840102805D10A48C06A08421C
:10CE000001D10120F2E70748806AF021084030286C
:10CE100005D10448C06A084201D10120E6E700209C
:10CE2000E4E70000C00F00F0F0B599B001201590C4
:10CE30001490002013900890079006900120059010
:10CE400004906427FFF780F97D21C9000190FFF766
:10CE500067F9491C0846029100F038F98F49002013
:10CE600010DF0546002D01D000BFFEE700208C49F1
:10CE70008860012000048B4948608A494039486035
:10CE80000520C003864940310860112001218140FE
:10CE9000854A116000BFFFF73DFE0546002D01D019
:10CEA00000BFFEE7012000F055FB0390039800F05F
:10CEB0004BFA039800F072F9054606E0039800F07B
:10CEC00043FA039800F06AF90546012DF6D1E3E034
:10CED0000498002806D0002004903946039800F0FA
:10CEE00083F91890002008903946039800F06AFAF8
:10CEF0001790002C08D16D48002805D16B48406878
:10CF0000002801D1012000E0002016902002C00F6F
:10CF100012906002C00F11902003C00F10902004E7
:10CF2000C00F0F90E004C00F0E90E005000F0D90B1
:10CF30002007C00F0C905D490868FFF7D7FE5C49D9
:10CF40000290FFF713F909900020C4DF05460A207C
:10CF5000584908700A4608210020C7DF0546002D01
:10CF600002D0012019B0F0BD002600BF701CC6B26F
:10CF7000012E02D0022E30D11AE04F48002101606C
:10CF800041604E48016041600821039800F0F4FFC1
:10CF900004460121039800F0EFFF44494860084629
:10CFA00022460121436808A8007BFFF7BFFE14E07A
:10CFB0000221039800F0E0FF3C49886003210398B8
:10CFC00000F0DAFF3949C8600846C3680221826868
:10CFD00008A8007BFFF7AAFE00BF00BF0020149046
:10CFE000032EC3DB0026149001201390079000202D
:10CFF000069032E0324A0BA90AA8C1DF0546002D8F
:10D000002BD108A8007B802823D12D4840784E28BA
:10D010001CD12B48407905902948007A0002284904
:10D02000C9790843B84208D02548007A000224494B
:10D03000C9790843074601200490214880790128D6
:10D0400004D000BF20BF40BF20BFFBE701200690F7
:10D0500002E00020069000BF00BF06980028C9D05B
:10D060000020C5DF05460798002815D00598C003A5
:10D070000B494031086001201249086012490860DC
:10D0800000BF20BF40BF20BF0E4800680028F8D175
:10D0900001200D49486088601AE70000D9DF0000D0
:10D0A000001501404013014000E100E04C19002050
:10D0B00000003C4215190020041900200C19002022
:10D0C0002C190020001900200010014001B505E0D6
:10D0D0000098401E00900348FEF7FCFF00980028CF
:10D0E000F6D108BDE703000010B58A0005231B0731
:10D0F000072424021B1984001A5110BD01210522A6
:10D10000120707231B02D2188300D150704700007A
:10D1100001218140014A91607047000000050050E4
:10D12000F0B50446059D2046064696400E4330461F
:10D130000646AE401E4330460646079FBE40069F49
:10D140003E4330460646099FBE40089F3E43304658
:10D15000F0BD000030B503460A200F4C2070204679
:10D160004370022008E00424241AE5000C46EC4039
:10D17000094D2C54441CE0B20528F4DB052008E0DE
:10D180000724241AE5001446EC40034D2C54441C9B
:10D19000E0B20828F4DB30BD1519002070B5044654
:10D1A00008200E4908700E480021016041600D48BA
:10D1B0000160416010200A490870082048700A4642
:10D1C00006480178204600F0CFF9054605488078EA
:10D1D000012800D170BD0020FCE7000014190020D8
:10D1E000041900200C190020F3B581B0054628462B
:10D1F0000299FFF7BDFC064608200F4908700F484A
:10D200000021016041600E48016041608A200B49A5
:10D2100008700A4608480178284600F0A5F9074634
:10D22000002E04D0012F02D101242046FEBD00248F
:10D2300000200446FAE70000141900200419002019
:10D240000C190020F3B583B00F4600200290042093
:10D250003A4908703A48002101604160394801604C
:10D2600041600325A801054614352D06002408E079
:10D270000320001BC1002846C84031490855601CE6
:10D28000C4B2042CF4DB2E4A2C480178039800F039
:10D290006BF90190002627E002960325A801029E63
:10D2A000304305462806B100795808430546002456
:10D2B00008E00320001BC1002846C840204908554B
:10D2C000601CC4B2042CF4DB1D4A1C48017803988E
:10D2D00000F04AF901901A480021016041601948A4
:10D2E00001604160701CC6B2142ED5DB6420FFF7CC
:10D2F000EDFE0325A801054614352806451C00242B
:10D300000FE00320001BC1002846C8400C49085507
:10D310000A460A480178039800F026F90190601C3B
:10D32000C4B2042CEDDB064A04480178039800F0EF
:10D330001BF90190019805B0F0BD00001419002000
:10D34000041900200C190020F1B582B00027042038
:10D3500018490870002426E0274609263003384380
:10D36000064630021449095D08430646002508E0D8
:10D370000220401BC1003046C84010494855681C77
:10D38000C5B2032DF4DB0D4A0A480178029800F07B
:10D39000EBF80190094800210160416008480160F4
:10D3A0004160601C84B2012000038442D4DB0198F8
:10D3B000FEBD0000141900200009002004190020FF
:10D3C0000C190020F3B58DB00E46082054490870A2
:10D3D00054480021016041605348016041608C2045
:10D3E000504908700A464E4801780D9800F0BCF884
:10D3F0000C900420012802D0042821D10FE0012440
:10D40000022500BFFF212141C807C00F002801D01D
:10D41000691CCDB2611CCCB2082CF3DB10E00124F6
:10D42000022500BF6200FF2111418807800F0328F9
:10D4300001D1691CCDB2611CCCB2042CF2DB00BF5F
:10D4400000BF0020002802D0012865D145E0304609
:10D45000FFF75CF88121C9050090FEF787FE029076
:10D460002846FFF75EF801900299FEF77FFE0390D1
:10D47000FFF7A4F82D4A2E4B05910490FEF766FFA6
:10D4800000222C4B07910690FEF7AEFE00222A4B9D
:10D4900009910890FEF7C2FF0B910A90FFF7A2F8DE
:10D4A0000746472109063846FEF760FE0B90FFF756
:10D4B00053F8224908600120214908602149086089
:10D4C00000BF20BF40BF20BF1D4800680028F8D122
:10D4D00001201C49486088601EE0294671430846C7
:10D4E000FFF726F8114A124B03910290FEF72EFF28
:10D4F000154A164B05910490FEF776FE0022144B58
:10D5000007910690FEF770FE09910890FFF738F832
:10D510000B90FFF7DBFD00BF00BF0C980FB0F0BD14
:10D5200014190020041900200C1900207B14AE47A8
:10D53000E17A943F00409F4000408F4040150140F9
:10D540000019002000100140EC51B81E85EBF13F9E
:10D550000000694070B5044600220121204600F019
:10D560003DFD0546284670BDF8B504460D461646F5
:10D57000064B32462946204600F0B2FD0746002FF2
:10D5800001D00120F8BD0020FCE700000C190020AC
:10D59000F0B51FB496B0054684460C461898199A03
:10D5A0000090490050006300490840080493002D92
:10D5B00001D0012600E000269E19FE4BF318FE4E16
:10D5C000B3420AD3009E5300002E00D001269F19BB
:10D5D000F84EBF197610B74207D260462146199B14
:10D5E000189AFEF701FE1BB0F0BD009F06463E43B1
:10D5F00071D0F24EB44201D1002D6CD06746049E2A
:10D60000002F00D00127F719ED4EB74206D8009F32
:10D61000002F00D00127DB19B34207D92846214645
:10D62000199B189AFEF7E0FD1BB0F0BD002307938D
:10D63000002C2EDAE34B98422BDAE34B984201DBC5
:10D64000022325E0DD4B984223DBE04B060DF31867
:10D65000142B0EDD3426F71A009BFB401E46BE40FD
:10D66000009FBE4215D1DE07F60F02239B1B0793D6
:10D670000FE0009E002E0CD11426F61A0346F3404C
:10D680001F46B340834204D1FE07F60F02239B1BC3
:10D69000079363460B431FD1002A1DDA002C04D0E8
:10D6A0000798022801D001280AD00220FFF72CFA9F
:10D6B000002213461046C149FEF7B0FE1BB0F0BD74
:10D6C0000220FFF721FA2A4623460020BB49FEF735
:10D6D000A5FE1BB0F0BD14E0009B002B62D1B94B3E
:10D6E000984221D1BA48844202D16046002808D02D
:10D6F000B248814209DB002A10DB189811461BB0A2
:10D70000F0BD0020AD491BB0F0BD002A06DA11467D
:10D710000122D207189851401BB0F0BDAD497944A1
:10D72000086849681BB0F0BDA44EB04224D1002A5D
:10D730001EDA002905D0994213D16046002809D08D
:10D7400016E06046002875D19E49E20FD2071143CA
:10D750001BB0F0BD0020E20F0146D20711431BB001
:10D76000F0BD994204DA2A4623460020314669E09A
:10D77000284621461BB0F0BD994213DA01239B07CE
:10D780009A4204D12A46234610461946EBE3924BAF
:10D790009A4207D1231E05DB2846194600F0E8FC13
:10D7A0001BB0F0BD63005B086646002E30D1002937
:10D7B0000AD0844EB1422BD1002C0FDD002A1EDB93
:10D7C000002031461BB0F0BD0798022817D0002C6E
:10D7D00015D0012813D1002C15DB10E0002C17DA2E
:10D7E0000798002A09DB012803D0002075491BB0E7
:10D7F000F0BD002079491BB0F0BD012803D0002006
:10D8000001461BB0F0BD00200121C9071BB0F0BDCF
:10D81000E617761C079F0D963E430CD0704EB04223
:10D820007EDD704E704BB04216DD99420EDC002A50
:10D830001CDB28E05FE20120FFF766F900221346B7
:10D8400010461146FEF7EAFD1BB0F0BD5B48814271
:10D8500002DB002A0ADC16E0994202DA002A05DB24
:10D8600011E0564B994217DD002A0CDD0220FFF72C
:10D870004BF907215D4A00200907FEF7BBFF49006D
:10D880004908002251E20220FFF73EF9FFF722F992
:10D8900049004908002248E2002228462146FEF7B6
:10D8A00046FD012204460D46D243FEF7A3FF504A2F
:10D8B000504BFEF742FD22462B46FEF747FD002265
:10D8C000454BFEF73AFD06460F4622462B461046CC
:10D8D0001946FEF73BFD3B463246FEF737FD06464E
:10D8E000032209915207444B20462946FEF72EFD9C
:10D8F0000F460C90414A404B30460999FEF726FDF1
:10D90000064602913E4A3F4B20462946FEF71EFD41
:10D910003246029BFEF70BFD04460B46024600E032
:10D9200011E0099139460C98FEF75EFC00250E4681
:10D930003B4628460C9AFEF7FAFC2246099BFEF766
:10D94000FCFC0B468EE1012400202405A14207DAED
:10D95000352228461946FEF74DFF05463420C043C0
:10D960000A1512181948101804900803000B1349DF
:10D9700006460E432449884201DC002003E0234987
:10D98000884202DA0120074604E004980027401C80
:10D99000361B04901E49F80079440F90081843681C
:10D9A000026828463146FEF7C2FC019119490C90E5
:10D9B000794431E0FFFF1F00FFFF0F000000F03F40
:10D9C0000000E0FF0000F07F0000404301FCFFFF8B
:10D9D0000000F0BF1E0B00000000E03F0000F0FF61
:10D9E0000000E0410000F043FFFFEF3F01030000B3
:10D9F000555555555555D53F4715F73FFE822B6573
:10DA000044DF5DF80BAE543E8E9803007AB60B00EF
:10DA10001C080000040800000F98081843680268FA
:10DA200028463146FEF7E0FB02460B460020FE4941
:10DA3000FEF7F4FC09910E90019B0C9AFEF786FC10
:10DA400005910A900B91F9480121784400681290E1
:10DA5000701049070843B90440180121C904471848
:10DA6000F3490F987944081843680268002439463E
:10DA70001298FEF75CFC2A463346FEF75EFC02462F
:10DA80000B4620460B99FEF761FC054600913B468C
:10DA90002046129A0B99FEF759FC019B0C9AFEF74F
:10DAA0004CFC2A46009BFEF742FC099B0E9AFEF7AF
:10DAB0004DFC109105990A9A0E900B461046FEF700
:10DAC00045FC05460246DB480E460B4606217844D7
:10DAD000FEF7AAFF07462A46334606911046194626
:10DAE000FEF734FC3A46069BFEF730FC05460E4630
:10DAF0002046059B0A9A0B99FEF776FB109B0E9A1F
:10DB0000FEF724FC2A463346FEF76EFB0191069091
:10DB10000B9922460B461046FEF718FCC64D002214
:10DB20002B4603910090FEF75FFB019B069AFEF7E0
:10DB30005BFB0F4622462B462046FEF7F8FB039B75
:10DB4000009AFEF7F4FB019B069AFEF7F6FB0546EA
:10DB50000E4622463B4610460B99FEF7F7FB019115
:10DB60000C9028463146059B0A9AFEF7EFFB0546C6
:10DB70000E463B46224610990E98FEF7E7FB3346C9
:10DB80002A46FEF731FB06460F460B460246019930
:10DB90000C98FEF729FB00200D460446019B0C9AC9
:10DBA000FEF7C5FB3B463246FEF7C7FB06460F466F
:10DBB00007225207A14B20462946FEF7C7FB0191D9
:10DBC00002909F4A9D4B30463946FEF7BFFB064602
:10DBD0000F469C4A9C4B20462946FEF7B7FB32462F
:10DBE0003B46FEF701FB994A04467A440F98101809
:10DBF000436802682046FEF7F7FA05910A900498F8
:10DC0000FEF796FC07460391059B0A9A0199029834
:10DC1000FEF7EAFA8E4A04467A440F9810184368D1
:10DC200002682046FEF7E0FA3A46039BFEF7DCFA6C
:10DC300000250E463A462846039BFEF778FB854AA8
:10DC400004467A440F981018436802682046FEF78D
:10DC50006EFB019B029AFEF76AFB059B0A9AFEF790
:10DC60006CFB0B4600210A91079A0D996E4C521ECF
:10DC7000114301D1784C0A9100221999049202466D
:10DC80000F461898FEF762FB009007913B46049AF6
:10DC900019991898FEF74BFB2A463346FEF756FBB8
:10DCA000079B009AFEF7A0FA099110902A46334686
:10DCB00039460498FEF74AFB06460F46099B109A20
:10DCC000FEF792FA654A0D46914224DB5242AA18A9
:10DCD000024310D132463B46FEF729FB04900391E4
:10DCE0005F4A604B09991098FEF77EFA039B049AED
:10DCF000FEF796FD2FD20220FEF706FF07215A4AB3
:10DD000000200907FEF776FD49004908E20FD20717
:10DD100011431BB0F0BD6A00544B52089A421AD30B
:10DD2000534AAA1802430CD102E011431BB0F0BDC4
:10DD300032463B46FEF7FBFA099B109AFEF770FD50
:10DD400009D80220FEF7E0FEFEF7C4FE49004908AC
:10DD5000E20FD207E9E76800002340084549049331
:10DD6000020D454B5218984223DD521C012000053C
:10DD7000D04040194200520D5118404A7A4412686E
:10DD8000034694463E4ACA40934302030120120BC5
:10DD9000000510181422511AC8400490002D01DA11
:10DDA00040420490624630463946FEF7C0FA0646C5
:10DDB0000F4632463B4609991098FEF715FA0020A7
:10DDC0000D4602462F4B0E90FEF7C0FA01910C90C3
:10DDD0002D4A2E4B29460E98FEF7B8FA079112905D
:10DDE00032463B4629460E98FEF7A1FA099B109A47
:10DDF000FEF7A3FA264A274BFEF7A8FA079B129ACA
:10DE0000FEF7F2F907460B460246099101990C9874
:10DE1000FEF7EAF90E460546019B0C9AFEF787FAD3
:10DE20003A46099B38E000000000F03FF20700008E
:10DE300050070000160700000000084009C7EE3F29
:10DE4000FD033ADCF5015B14E02F3EBEEA0500005D
:10DE5000AC050000820500000000F0BF000090400B
:10DE6000FE822B654715973C0103000000CC9040D3
:10DE700000346F3F01FCFFFF0000E03FC0040000E2
:10DE8000FFFF0F00432EE63F396CA80C615C20BEFB
:10DE9000EF39FAFE422EE63FFEF74FFA2A463346A6
:10DEA0000991109010461946FEF750FA02460E905E
:10DEB0002F480F460B4605217844FEF7B5FD3B463B
:10DEC0000E9AFEF743FA2A463346FEF736FA07461D
:10DED000089128463146099B109AFEF737FA099BAC
:10DEE000109AFEF781F9012303910C9000229B0701
:10DEF00038460899FEF71BFA01910E903A462846DB
:10DF00003146089BFEF722FA019B0E9AFEF786FA2D
:10DF1000039B0C9AFEF70BFA2A463346FEF707FAE4
:10DF20000022144BFEF709FA064604980D46000538
:10DF300041190915002911DC30462946049AFEF7DB
:10DF400059FCFEF75BFD042801D1FEF7C3FD304606
:10DF50002946049AFEF74EFC064600E029180B46B7
:10DF6000324621460A98FEF7F1F91BB0F0BD0000D9
:10DF70005C0300000000F03FF0B587B007460C4698
:10DF80000420124908700126B0012043C6B210488F
:10DF900006700246084601783846FFF7E5FA05465E
:10DFA000002001900290039004900820094A0090FC
:10DFB000D378917850780822FFF7B2F80690002DB8
:10DFC00002D1284607B0F0BD0698FBE714190020DF
:10DFD000041900200C19002000BFFEE7F7B5064623
:10DFE0000F46002E01D13C4800E03C480446002E7C
:10DFF0001FD11E20FFF782F80120FFF77FF80021D4
:10E000001D20FFF771F80020FFF778F81E2005218A
:10E010000902611888600120052109026118C860A1
:10E020001D2005210902611808610020FFF770F822
:10E030001EE01E20FFF762F80120FFF75FF80021C5
:10E040001D20FFF751F80020FFF758F81E2005218A
:10E050000902611888600120052109026118C86061
:10E060001D2005210902611808610020FFF750F802
:10E07000012000070521090261184862002F06D01F
:10E08000012F06D0022F06D0032F08D105E000256E
:10E0900007E0022505E0042503E0062501E0002550
:10E0A00000BF00BF0298002806D001202843152198
:10E0B00089016118486103E015208001201845613D
:10E0C0000021FF20093001510120052109026118BA
:10E0D00008602046FEBD00000030004000400040C7
:10E0E000FFB581B000270026019D1F48019D854294
:10E0F00001D1002400E0002400BF0120A0401B4902
:10E10000C86000BF27E00398805D052109026918F7
:10E11000C86100E07F1CFF2009304059002803D16E
:10E12000032000038742F5D303200003874205D173
:10E130002046FEF7EDFF002005B0F0BD0021FF20D6
:10E14000093041510520000228188069C1B20498A5
:10E150008155701C86B202988642D4DB2046FEF7B9
:10E16000D7FF0120E8E70000003000400005005024
:10E17000F8B506460C46FEF779FB05000F4600D0C1
:10E180000120014349000B484908411AC90F0DD02D
:10E19000002E01D0012100E000210C43610049085C
:10E1A000401AC00F02D10120FEF7AEFC28463946C6
:10E1B000F8BD00000000F07F000000000000F03F0C
:10E1C000000000000000F83F000000000000000018
:10E1D0000000004003B8E23F000000000000000023
:10E1E00006D0CF43EBFD4C3E033333333333E33FB1
:10E1F000FFAB6FDBB66DDB3F4D268F515555D53FDD
:10E2000001411DA96074D13F65DBC9934A86CD3FAA
:10E21000EF4E454A287ECA3F3E5555555555C53F98
:10E2200093BDBE166CC166BF2CDE25AF6A56113F8A
:10E23000F16BD2C541BDBBBED0A4BE726937663E8C
:10E24000000000000000000058E20000000900206B
:10E250002C1000000EC900003016000000626300A0
:10E2600065BE012026425C48A00321E42031A106BE
:10E27000100684012363011F10180000200B43586F
:10E28000C0FE43C0447A7E200BC0C0C0C8FF43ED2F
:10E2900044082005F6FF43EC081023C8FF412394EF
:10E2A000D043EE44D243EF44205A706071617868E5
:10E2B000027AF343C7FE41EB455A21DF4601512A5A
:10E2C000100E4355ED45EC51F4412388EA45F5061F
:10E2D0003023E9451D414358EA2199E95046EB4472
:10E2E000A902EB5943CAFE415CA803C05AEB45EBB7
:10E2F00041F245F62B32F72B021A1F2B5008F3453B
:10E3000002FFFFFF470150067C7D4541020CA0073C
:10E31000F07C6D45416C11E26C1ED10F6129032D1B
:10E32000024F01032D024E01032D025601032E025E
:10E330005E011006026AFD4340C91405EB457AF9F7
:10E34000412405EB2199EABE86F1BE1405ED45C0D6
:10E3500041D01021F8FF43E9446A1D43AB01EA585C
:10E360008E03EC531D501F44EC53ED53E943EC581E
:10E37000ACE68E262372F9352903213522FC3510AF
:10E380000F1D431F59E943ED53EC5358ACF27A5D2E
:10E3900022C9287004E744E82C131F43EE2177229A
:10E3A000CF65138E070A22CB6F13405D3C18042102
:10E3B000CAE84A400C1D45F843AB0CC041ED53532D
:10E3C0002E6011E753C041E853E75341EC45E94360
:10E3D0005CACD33E13E8410F12A82A1004E8435363
:10E3E000371808445943ABEBC84365100F447A8A89
:10E3F0001BC043405D5D9015C845C94F1012AA0B64
:10E40000CA45CB45CC45CD45CE45CF450002C05889
:10E4100013EA448012060A2109117232130B134EBB
:10E420005096100408C0430A210B49AC500E4E4EC2
:10E43000E9519101235AEA43E95192085293085253
:10E4400094085295085296085297301302E9922187
:10E45000D51405027AFA417E2017E7455AFB43E7B7
:10E460007521CA65D0455AFC43E721CAD1455AFDFA
:10E4700008180FD245796902D7FE43E7455DAD0123
:10E480005D7D280E1F431D44C043EC51ED515DAA34
:10E49000F2D501FF0101FF0101FF0101FF0101FFB1
:10E4A0000101FF0101FF0101FF0101FF0101FF0166
:10E4B00001FF0101FF01A10100043D02010342022D
:08E4C0001F00017324F4240085
:040000050000C0C176
:00000001FF
