:020000040000FA
:10C0000068210020F5C0000007C1000009C1000040
:10C010000000000000000000000000000000000020
:10C020000000000000000000000000000BC1000044
:10C0300000000000000000000DC100000FC1000062
:10C0400011C1000011C1000011C1000011C10000A8
:10C0500011C100000000000011C1000011C100006A
:10C0600011C1000011C1000011C1000011C1000088
:10C0700011C1000011C1000011C1000011C1000078
:10C0800011C100007DC8000011C1000011C10000F5
:10C0900011C1000011C1000011C1000011C1000058
:10C0A00011C1000011C100000000000000000000EC
:10C0B0000000000000000000000000000000000080
:10C0C0000348854600F014FB0048004709CD0000F6
:10C0D00068210020401E00BF00BF00BF00BF00BF9E
:10C0E00000BF00BF00BF00BF00BF00BF00BFF1D155
:10C0F00070470000074802680F210A4302600648A3
:10C10000804706480047FEE7FEE7FEE7FEE7FEE75A
:10C11000FEE7000024050040A5C80000C1C00000E3
:10C12000024670B54A40D30FDB0740002DD04A00CD
:10C130002AD0010E140E091900021202400A520AF6
:10C140008418E50104465443000A120A2E045043A1
:10C15000A4194219200CC543AA18120C01257F39D5
:10C16000521CAD0352191204240400D0521C104377
:10C1700001D44000491EC2B20C06C0092018401C60
:10C180004008802A02D003E0002070BD4008400033
:10C19000002900DA0020184370BD0000F0B50C46FD
:10C1A0005C4085B0E40FE40703944C00002664086B
:10C1B00059009446490802460296224321D062461D
:10C1C0000A431ED06200570D4A000E032303550D8B
:10C1D000012402462C492405781B1B0B360B401802
:10C1E00023432643614600901C46501AB44103D3B2
:10C1F0000098401C009002E0921800985B410028D3
:10C2000003DA0020014605B0F0BD00200121090538
:10C210000746864611E064461D46141BB54106D309
:10C220006546521BB341744607430C43A646CD07EF
:10C2300040084908284392185B4105460D43EAD15E
:10C240001046184313D060461946504071400843C9
:10C2500003D100220123DB0709E06046101AB34135
:10C2600002D20122002302E00122D243531000989F
:10C2700074460105381C6141029C039D0019694107
:10C2800000F07DF8BFE70000FD03000010B50022BC
:10C290009623114600F039F810BDC20FD2074000B6
:10C2A00040080BD0C10D0723DB01C9184002090566
:10C2B000400A1143C208400711437047002001465D
:10C2C0007047CB0FDB07490010B5490802460A4307
:10C2D00007D00A0D07240903E401090B121B002AE9
:10C2E00001DC002010BDC900440F0C43C100E01860
:10C2F000D205801800F001F810BD002904DA401CB6
:10C30000490001D140084000704770B40024050C7A
:10C3100005D11024000402D1002922D01124050ED9
:10C3200001D108340002050F01D1241D0001850F41
:10C3300001D1A41C8000002801DB641C40000029FE
:10C3400008D020252E1B0D46F540A14000D001212C
:10C35000294308431B1B0106DB1D000A002B02DAE0
:10C36000002070BC7047DB05181880180029F8DA27
:10C37000401C4900F5D170BC40084000704710B522
:10C38000002B08DA0024401C614192185B411A43DB
:10C3900001D14008400010BDF0B51FB482B0054681
:10C3A0000C0003D0084600F099FA02E000F096FA7B
:10C3B0002030024600902146284600F0ABF9049B4D
:10C3C000059A04460F4618431143084303D12046FB
:10C3D000394607B0F0BD1846104317D000984021E9
:10C3E0000A1A1846059900F0A5F905460E46009A66
:10C3F0000599049800F08EF9084301D0012000E06F
:10C400000020C11705430E432C43374300990E9873
:10C410006305401A7905E40A0A3000220C43FD0A3C
:10C42000002802DA00200146D3E70105101969410E
:10C430000C9C0D9D00196941FFF7A1FFC9E70000A1
:10C44000F0B507460846584087B0C00F0490480032
:10C450000E46590040084908BC1A884105D23846A2
:10C4600031461E4617460B46024658004008104308
:10C4700003D13846314607B0F0BD300D039040057A
:10C480005900400D490D0590401A029040286DDA80
:10C4900018030121000B090508430190049800923C
:10C4A000002805D001995242002088410092019055
:10C4B000029840210A1A0199009800F02BF90546CC
:10C4C0000C46684607C800F046F9C0197141039A46
:10C4D0000E0D0023D71756401A467A40164340D017
:10C4E000049A002A29D0029A012A039A11DC120523
:10C4F000C01A914101263605001C7141D20F059EDC
:10C50000D2070093019202962A462346FFF744FF82
:10C51000B1E71605224A0F46B218C01AB7410121E9
:10C520000905001C4F4100187F4111461818794138
:10C53000E20F10436D19644113E0E2076D081543E3
:10C540006408C2071443039A01261205C01A9141D8
:10C550003605001C7141CE07400830434908C01819
:10C5600051412A462346FFF70AFF84E70498012237
:10C570004000C117121A00238B4104983146C4179A
:10C58000381AA141EFE730B40124E407634030BC1E
:10C5900056E730B40124E407614030BC50E70000A6
:10C5A0000000E0FFF0B51FB488B00B990998002493
:10C5B00048400999C00F490049080991C0070B99E3
:10C5C0000090490049080B9109990898A64608432C
:10C5D00003D00B990A98084303D1002001460DB0FF
:10C5E000F0BD099801244000420D4800410D099812
:10C5F00024050003000B204309900B980003000B57
:10C6000020430B9050181A494018002201901446FC
:10C61000104601E0032801DA034600E003239C46AC
:10C62000C11A0AAE0AE05F0008ADED5B4F00F75B90
:10C630007D430027AA187C415B1E491C6145F2DD41
:10C64000410004AB5A522104120C0A43240C401C32
:10C650000828DFDB01980290009970460191009054
:10C66000059B049A07990698FFF796FEB7E7000026
:10C670000DFCFFFF70B54B005B0803430BD04B0074
:10C680005C0D002633466542B341D417AD1AA34171
:10C6900002DB0020014670BD12053018514170BD0B
:10C6A0000EB5C217C10F5040CA0740180021054BF4
:10C6B0000293019200910A460B46FFF76DFE03B00C
:10C6C00000BD00003304000010B5002904DB012484
:10C6D000E40740428C412146002B04DB1C46012329
:10C6E000DB075242A341994200D1904210BD0000A5
:10C6F000064C0125064E05E02046E36807C82B439B
:10C7000098471034B442F7D3FFF7DEFC78DF00001F
:10C7100088DF000010B5202A04DB0146203A914052
:10C72000002010BD914020239C1A0346E34019438A
:10C73000904010BD10B5202A04DB0846203AD040B6
:10C74000002110BD0B46D340D0402024A21A9140B6
:10C750000843194610BD10B5202A06DBCB17084642
:10C76000203A1041C1170B4306E00B461341D0405D
:10C770002024A21A91400843194610BDFEB500239B
:10C780001A461B1A8A4103DB0020014603B0F0BDA4
:10C790004A000D0301212D0B0905520D0D43D10750
:10C7A00002D100186D41521E5110FF31FF3101318D
:10C7B000002704463E463846009701910246012173
:10C7C00000200905FFF7B6FFC3197141F81832467A
:10C7D00084468E464A4161462846611A904104D3F8
:10C7E0006046241A954176461F46241900986D41EB
:10C7F000401C00903428E1DDF91930467041091BD6
:10C80000A84103D20022D243134601E0002213467E
:10C8100001980105381C7141FFF7B1FDB6E770B50D
:10C820008D180478401CA207920F01D10278401C99
:10C83000231106D10378401C03E00678401C0E70DB
:10C84000491C521EF9D1002B14D002780C26401C32
:10C850008A1A34400C2C03D0A401121B9B1C07E045
:10C860000478401C2402F8E71478521C0C70491C10
:10C870005B1EF9D5A942D4D3002070BD06480068DC
:10C88000002807D0002004490860044908600120FE
:10C8900003498860704700004011014000190020E2
:10C8A0000010014010B500F0FDF9002805D0074840
:10C8B00007494860C8130749886100F0D9F9002882
:10C8C00002D001200449886010BD0000DFFF07C0CE
:10C8D00000050040006C0040000600402021020CD2
:10C8E00001D010211046020A01D008391046020971
:10C8F00001D0091F1046820801D0891E1046420847
:10C9000001D0881E7047081A704700004900CA020B
:10C91000104300D004204A0D01D001221043054AE3
:10C92000490D914201D102210843012800D105207F
:10C9300070470000FF070000F8B504464F1EC8000E
:10C940000838211815461E46086849683A460623E5
:10C950009A4310D02A463346FFF724FE3A46D200C7
:10C96000083AA3181A687F1E5B68FFF769FD062264
:10C970003B469343EED1022F23D0042F11D0062F34
:10C980002FD12A463346FFF70DFEE36AA26AFFF76E
:10C9900057FD2A463346FFF705FE636A226AFFF712
:10C9A0004FFD2A463346FFF7FDFDE369A269FFF715
:10C9B00047FD2A463346FFF7F5FD63692269FFF715
:10C9C0003FFD2A463346FFF7EDFDE368A268FFF717
:10C9D00037FD2A463346FFF7E5FD63682268FFF717
:10C9E0002FFDF8BD034A10B500201107FFF742FEE6
:10C9F00010BD000001FDFFFF02E008C8121F08C1C2
:10CA0000002AFAD170477047002001E001C1121FCF
:10CA1000002AFBD170470000014908607047000000
:10CA20002419002010B500231A4620211846C2DF21
:10CA30000446002C01D0012010BD02230122114622
:10CA40000020D3DF0446002C01D00120F4E742216E
:10CA50000020CDDF0446002C01D00120ECE707497F
:10CA60000020D1DF0446002C01D00120E4E7002C97
:10CA700001D00120E0E70020DEE7000066060000AC
:10CA8000F0B599B0044604200F2101910290039162
:10CA9000049008200023042202210090104600F098
:10CAA000F7FA059053480690002008220B230390C4
:10CAB000019302920490042006230246014600904E
:10CAC000FF2000F0E5FA079000200D226423039078
:10CAD0000193029204900320002306220D2100906E
:10CAE000184600F0D5FA0890042000210191029028
:10CAF000039104900A20042302220090084600F0CB
:10CB0000C7FA099000200190029003900490034618
:10CB100016220146009000F0BBFA0A90002008227D
:10CB200040230390019302920490072000230122E6
:10CB300019460090184600F0ABFA0B901F20000435
:10CB40000C90042000210122019102920B460092D8
:10CB500003910490104600F09BFAC5B200200190AA
:10CB60000290039004900120002302461946009091
:10CB7000184600F08DFAC6B20420032202900490F9
:10CB8000002303960192009002461946284600F0C1
:10CB90007FFA0D9004200F210822002304900193B6
:10CBA0000292039100900246084600F071FA0E903E
:10CBB00000200190029003900490082087230246F1
:10CBC00000210090182000F063FA0F9000201090D0
:10CBD00011901290139014901590169017900120B8
:10CBE0004005189005A9204600F090FA07463846FF
:10CBF00019B0F0BD22102000F1B584B00498FFF701
:10CC000045FB039000220B4B1046990300F054FBA8
:10CC1000019100900398FFF740FB0446019B009AA6
:10CC2000FFF7BCFA0646FFF74CFB0290029805B0EE
:10CC3000F0BD000000003540F8B50C4615461E4614
:10CC400032462946204600F03DFA074A08210020D6
:10CC5000C7DF0746002F01D000F008F87D20C00094
:10CC600000F0ECF9F8BD00001519002000BFFEE748
:10CC70000B48008CC0B2012810D10948808C0007F5
:10CC8000000F0BD10648806AF0210840402805D1EA
:10CC90000348C06A084201D1012070470020FCE728
:10CCA000C00F00F01748008CC0B2012827D11548EA
:10CCB000808C0007000F22D11248806AF0210842C0
:10CCC00005D11048C06A084201D1012070470D48C3
:10CCD000806AF0210840102805D10A48C06A08423D
:10CCE00001D10120F2E70748806AF021084030288E
:10CCF00005D10448C06A084201D10120E6E70020BE
:10CD0000E4E70000C00F00F0F0B595B001201090EE
:10CD10000F9000200E900390BC4910DF0646002EB5
:10CD200001D000BFFEE70020B9498860012000045F
:10CD3000B8494860B749403948600520C003B44944
:10CD400040310860112001218140B34A116000BFC9
:10CD5000FFF768FE0646002E01D000BFFEE7012067
:10CD600000F08CFA0290029800F04AFA4CE10020A0
:10CD700003900820A9490870A9480021016041607A
:10CD8000A848016041601020A5490870082048703B
:10CD90000A46A2480178029800F07AFA13906420BB
:10CDA00000F04CF99E480021016041609D480160FF
:10CDB00041600298FFF764FE1490082097490870BC
:10CDC00097480021016041609648016041608A20D7
:10CDD00093490870642000F031F9914A8F48017836
:10CDE000029800F055FA139008208C4908708C487E
:10CDF0000021016041608B48016041608C208849BE
:10CE00000870642000F01AF9854A84480178029875
:10CE100000F03EFA12907D20C00000F00FF980482B
:10CE20000021016041607F48016041600821029853
:10CE300000F036FF04467A480021016041607948DD
:10CE400001604160029800F02BFF77490860744848
:10CE50000021016041607348016041600121029836
:10CE600000F01EFF704948606D480021016041607C
:10CE70006C48016041600221029800F011FF6A498C
:10CE80008860674800210160416066480160416038
:10CE90000321029800F004FF6349C8606048002144
:10CEA000016041605F48016041600421029800F028
:10CEB000F7FE5D4908615A48002101604160594808
:10CEC000016041600521029800F0EAFE5649486180
:10CED00053480021016041605248016041600621D1
:10CEE000029800F0DDFE504988614D480021016044
:10CEF00041604C48016041600721029800F0D0FE7B
:10CF00004949C861002C08D10846002805D10846C7
:10CF10004068002801D1012000E00020119020028B
:10CF2000C70F6002C00F0D902003C00F0C902004AB
:10CF3000C00F0B90E004C00F0A90E005000F0990AD
:10CF40002007C00F089038490868FFF755FE374999
:10CF50000190FFF7E5F804900020C4DF06460520A5
:10CF6000334908700A4608210020C7DF0646002E14
:10CF700002D0012015B0F0BD002500BF681CC5B26D
:10CF8000012D02D0022D22D110E027494868FFF779
:10CF900033FE26490190FFF7C3F806902248224647
:10CFA000012143680798FFF747FE10E01E49886893
:10CFB000FFF722FE1D490190FFF7B2F805901A48CD
:10CFC000C368022182680798FFF736FE00BF00BFE2
:10CFD00000200F90032DD1DB00250F9001200E9033
:10CFE0000020C5DF0646012012490860124908608A
:10CFF00000BF20BF40BF20BF0E4800680028F8D106
:10D0000001200D4948608860B1E6000009DD00009C
:10D01000001501404013014000E100E01419002018
:10D02000041900200C1900204819002000003C427F
:10D0300015190020001900200010014001B505E07D
:10D040000098401E00900348FFF744F8009800281D
:10D05000F6D108BDE703000010B58A0005231B07C1
:10D06000072424021B1984001A5110BD0121052236
:10D07000120707231B02D2188300D150704700000B
:10D0800001218140014A9160704700000005005075
:10D09000F0B50446059D2046064696400E433046B0
:10D0A0000646AE401E4330460646079FBE40069FDA
:10D0B0003E4330460646099FBE40089F3E433046E9
:10D0C000F0BD000030B5034605200F4C207020460F
:10D0D0004370022008E00424241AE5000C46EC40CA
:10D0E000094D2C54441CE0B20528F4DB052008E06F
:10D0F0000724241AE5001446EC40034D2C54441C2C
:10D10000E0B20828F4DB30BD15190020F3B583B078
:10D110000F46002002900420364908700325A8011C
:10D12000054614352D06002408E00320001BC1002D
:10D130002846C84030490855601CC4B2042CF4DBB2
:10D140002D4A2C480178039800F0A2F8019000269F
:10D1500027E002960325A801029E304305462806D3
:10D16000B100795808430546002408E00320001B5D
:10D17000C1002846C84020490855601CC4B2042C90
:10D18000F4DB1D4A1B480178039800F081F80190F8
:10D190001948002101604160184801604160701C1D
:10D1A000C6B2142ED5DB6420FFF748FF0325A80183
:10D1B000054614352806451C00240FE00320001BFB
:10D1C000C1002846C8400C4908550A46094801785C
:10D1D000039800F05DF80190601CC4B2042CEDDBF4
:10D1E000054A04480178039800F052F8019001982C
:10D1F00005B0F0BD14190020041900200C190020FE
:10D20000F1B582B00027042018490870002426E0F8
:10D210002746092630033843064630021449095D83
:10D2200008430646002508E00220401BC1003046A6
:10D23000C84010494855681CC5B2032DF4DB0D4A9F
:10D240000A480178029800F023F80190094800216B
:10D2500001604160084801604160601C84B20120A7
:10D2600000038442D4DB0198FEBD000014190020A5
:10D2700000090020041900200C19002070B5044694
:10D2800000220121204600F041FD0546284670BDE0
:10D29000F8B504460D461646064B3246294620464A
:10D2A00000F0B6FD0746002F01D00120F8BD002098
:10D2B000FCE700000C190020F0B51FB496B005463D
:10D2C00084460C461898199A009049005000630053
:10D2D000490840080493002D01D0012600E00026F3
:10D2E0009E19FE4BF318FE4EB3420AD3009E530024
:10D2F000002E00D001269F19F84EBF197610B742B4
:10D3000007D260462146199B189AFFF799F81BB07F
:10D31000F0BD009F06463E4371D0F24EB44201D1AB
:10D32000002D6CD06746049E002F00D00127F7190E
:10D33000ED4EB74206D8009F002F00D00127DB1921
:10D34000B34207D928462146199B189AFFF778F867
:10D350001BB0F0BD00230793002C2EDAE34B98425C
:10D360002BDAE34B984201DB022325E0DD4B9842A8
:10D3700023DBE04B060DF318142B0EDD3426F71AD1
:10D38000009BFB401E46BE40009FBE4215D1DE07FB
:10D39000F60F02239B1B07930FE0009E002E0CD17B
:10D3A0001426F61A0346F3401F46B340834204D1C5
:10D3B000FE07F60F02239B1B079363460B431FD107
:10D3C000002A1DDA002C04D00798022801D0012879
:10D3D0000AD00220FFF720FB002213461046C14965
:10D3E000FEF7DCFE1BB0F0BD0220FFF715FB2A465E
:10D3F00023460020BB49FEF7D1FE1BB0F0BD14E070
:10D40000009B002B62D1B94B984221D1BA4884428B
:10D4100002D16046002808D0B248814209DB002AC8
:10D4200010DB189811461BB0F0BD0020AD491BB0B1
:10D43000F0BD002A06DA11460122D20718985140A1
:10D440001BB0F0BDAD497944086849681BB0F0BD18
:10D45000A44EB04224D1002A1EDA002905D09942F8
:10D4600013D16046002809D016E06046002875D127
:10D470009E49E20FD20711431BB0F0BD0020E20F1E
:10D480000146D20711431BB0F0BD994204DA2A4687
:10D4900023460020314669E0284621461BB0F0BDF6
:10D4A000994213DA01239B079A4204D12A46234664
:10D4B00010461946EBE3924B9A4207D1231E05DB37
:10D4C0002846194600F0ECFC1BB0F0BD63005B0879
:10D4D0006646002E30D100290AD0844EB1422BD1AD
:10D4E000002C0FDD002A1EDB002031461BB0F0BDF2
:10D4F0000798022817D0002C15D0012813D1002C32
:10D5000015DB10E0002C17DA0798002A09DB012848
:10D5100003D0002075491BB0F0BD002079491BB035
:10D52000F0BD012803D0002001461BB0F0BD002053
:10D530000121C9071BB0F0BDE617761C079F0D96A9
:10D540003E430CD0704EB0427EDD704E704BB04208
:10D5500016DD99420EDC002A1CDB28E05FE2012088
:10D56000FFF75AFA0022134610461146FEF716FE40
:10D570001BB0F0BD5B48814202DB002A0ADC16E0EA
:10D58000994202DA002A05DB11E0564B994217DD79
:10D59000002A0CDD0220FFF73FFA07215D4A002038
:10D5A0000907FFF767F849004908002251E2022005
:10D5B000FFF732FAFFF716FA49004908002248E25D
:10D5C000002228462146FEF7DEFF012204460D46D2
:10D5D000D243FFF74FF8504A504BFEF7DAFF22468E
:10D5E0002B46FEF7DFFF0022454BFEF7D2FF064633
:10D5F0000F4622462B4610461946FEF7D3FF3B4600
:10D600003246FEF7CFFF0646032209915207444BEC
:10D6100020462946FEF7C6FF0F460C90414A404B74
:10D6200030460999FEF7BEFF064602913E4A3F4B3F
:10D6300020462946FEF7B6FF3246029BFEF7A3FFBF
:10D6400004460B46024600E011E0099139460C9869
:10D65000FEF7F6FE00250E463B4628460C9AFEF7DE
:10D6600092FF2246099BFEF794FF0B468EE10124B0
:10D6700000202405A14207DA352228461946FEF784
:10D68000F9FF05463420C0430A151218194810182E
:10D6900004900803000B134906460E4324498842B0
:10D6A00001DC002003E02349884202DA012007461A
:10D6B00004E004980027401C361B04901E49F80023
:10D6C00079440F9008184368026828463146FEF7EF
:10D6D0005AFF019119490C90794431E0FFFF1F0076
:10D6E000FFFF0F000000F03F0000E0FF0000F07FB0
:10D6F0000000404301FCFFFF0000F0BF260B0000CC
:10D700000000E03F0000F0FF0000E0410000F043B7
:10D71000FFFFEF3F01030000555555555555D53FC7
:10D720004715F73FFE822B6544DF5DF80BAE543E94
:10D730008E9803007AB60B00240800000C08000045
:10D740000F9808184368026828463146FEF778FEAD
:10D7500002460B460020FE49FEF720FD09910E907F
:10D76000019B0C9AFEF71EFF05910A900B91F94858
:10D770000121784400681290701049070843B904E9
:10D7800040180121C9044718F3490F987944081833
:10D7900043680268002439461298FEF7F4FE2A46D0
:10D7A0003346FEF7F6FE02460B4620460B99FEF77F
:10D7B000F9FE054600913B462046129A0B99FEF76A
:10D7C000F1FE019B0C9AFEF7E4FE2A46009BFEF751
:10D7D000DAFE099B0E9AFEF7E5FE109105990A9A6A
:10D7E0000E900B461046FEF7DDFE05460246DB486E
:10D7F0000E460B4606217844FFF79EF807462A4658
:10D800003346069110461946FEF7CCFE3A46069B73
:10D81000FEF7C8FE05460E462046059B0A9A0B9960
:10D82000FEF70EFE109B0E9AFEF7BCFE2A4633460C
:10D83000FEF706FE019106900B9922460B46104614
:10D84000FEF7B0FEC64D00222B4603910090FEF776
:10D85000F7FD019B069AFEF7F3FD0F4622462B4685
:10D860002046FEF790FE039B009AFEF78CFE019B7C
:10D87000069AFEF78EFE05460E4622463B461046A9
:10D880000B99FEF78FFE01910C9028463146059BBF
:10D890000A9AFEF787FE05460E463B462246109939
:10D8A0000E98FEF77FFE33462A46FEF7C9FD064670
:10D8B0000F460B46024601990C98FEF7C1FD002069
:10D8C0000D460446019B0C9AFEF75DFE3B46324630
:10D8D000FEF75FFE06460F4607225207A14B204681
:10D8E0002946FEF75FFE019102909F4A9D4B30460C
:10D8F0003946FEF757FE06460F469C4A9C4B20468B
:10D900002946FEF74FFE32463B46FEF799FD994AFF
:10D9100004467A440F981018436802682046FEF7C0
:10D920008FFD05910A900498FEF7BAFE0746039111
:10D93000059B0A9A01990298FEF782FD8E4A0446D9
:10D940007A440F981018436802682046FEF778FD65
:10D950003A46039BFEF774FD00250E463A462846DC
:10D96000039BFEF710FE854A04467A440F98101870
:10D97000436802682046FEF706FE019B029AFEF706
:10D9800002FE059B0A9AFEF704FE0B4600210A914F
:10D99000079A0D996E4C521E114301D1784C0A9191
:10D9A00000221999049202460F461898FEF7FAFDD4
:10D9B000009007913B46049A19991898FEF7E3FDE9
:10D9C0002A463346FEF7EEFD079B009AFEF738FD28
:10D9D000099110902A46334639460498FEF7E2FD35
:10D9E00006460F46099B109AFEF72AFD654A0D462A
:10D9F000914224DB5242AA18024310D132463B46E0
:10DA0000FEF7C1FD049003915F4A604B099910989D
:10DA1000FEF716FD039B049AFEF756FE2FD2022056
:10DA2000FEF7FAFF07215A4A00200907FEF722FEF7
:10DA300049004908E20FD20711431BB0F0BD6A004C
:10DA4000544B52089A421AD3534AAA1802430CD193
:10DA500002E011431BB0F0BD32463B46FEF793FD9A
:10DA6000099B109AFEF730FE09D80220FEF7D4FF7A
:10DA7000FEF7B8FF49004908E20FD207E9E768005E
:10DA80000023400845490493020D454B5218984223
:10DA900023DD521C01200005D04040194200520DE8
:10DAA0005118404A7A441268034694463E4ACA4096
:10DAB000934302030120120B000510181422511A7F
:10DAC000C8400490002D01DA40420490624630467E
:10DAD0003946FEF758FD06460F4632463B46099941
:10DAE0001098FEF7ADFC00200D4602462F4B0E901D
:10DAF000FEF758FD01910C902D4A2E4B29460E98A9
:10DB0000FEF750FD0791129032463B4629460E988B
:10DB1000FEF739FD099B109AFEF73BFD264A274B7D
:10DB2000FEF740FD079B129AFEF78AFC07460B465C
:10DB30000246099101990C98FEF782FC0E460546B3
:10DB4000019B0C9AFEF71FFD3A46099B38E0000046
:10DB50000000F03FFA070000580700001E07000011
:10DB60000000084009C7EE3FFD033ADCF5015B14F5
:10DB7000E02F3EBEF2050000B40500008A0500005B
:10DB80000000F0BF00009040FE822B654715973CD7
:10DB90000103000000CC904000346F3F01FCFFFF08
:10DBA0000000E03FC8040000FFFF0F00432EE63FE7
:10DBB000396CA80C615C20BEEF39FAFE422EE63FBC
:10DBC000FEF7E7FC2A4633460991109010461946A5
:10DBD000FEF7E8FC02460E902F480F460B46052143
:10DBE0007844FEF7A9FE3B460E9AFEF7DBFC2A4678
:10DBF0003346FEF7CEFC0746089128463146099B7E
:10DC0000109AFEF7CFFC099B109AFEF719FC01232E
:10DC100003910C9000229B0738460899FEF7B3FC4D
:10DC200001910E903A4628463146089BFEF7BAFC11
:10DC3000019B0E9AFEF7B2FA039B0C9AFEF7A3FC27
:10DC40002A463346FEF79FFC0022144BFEF7A1FC48
:10DC5000064604980D46000541190915002911DCF6
:10DC600030462946049AFEF705FDFEF74FFE0428CC
:10DC700001D1FEF7B7FE30462946049AFEF7FAFCBA
:10DC8000064600E029180B46324621460A98FEF760
:10DC900089FC1BB0F0BD0000640300000000F03FF1
:10DCA000F0B587B007460C460420144908700126D9
:10DCB000B0012043C6B2124806706420FFF7BEF9D7
:10DCC0000F4A0E4801783846FFF7E2FA0546002071
:10DCD000019002900390049008200A4A0090D378A3
:10DCE000917850780822FFF7D3F90690002D02D1E1
:10DCF000284607B0F0BD0698FBE700001419002085
:10DD0000041900200C19002000BFFEE7F7B50646F5
:10DD10000F46002E01D13C4800E03C480446002E4E
:10DD20001FD11720FFF7A2F91920FFF79FF9002153
:10DD30001620FFF791F91820FFF798F91720052111
:10DD40000902611888601920052109026118C8605C
:10DD5000162005210902611808611820FFF790F9C3
:10DD60001EE01720FFF782F91920FFF77FF9002145
:10DD70001620FFF771F91820FFF778F91720052111
:10DD80000902611888601920052109026118C8601C
:10DD9000162005210902611808611820FFF770F9A3
:10DDA000012000070521090261184862002F06D0F2
:10DDB000012F06D0022F06D0032F08D105E0002541
:10DDC00007E0022505E0042503E0062501E0002523
:10DDD00000BF00BF0298002806D00120284315216B
:10DDE00089016118486103E0152080012018456110
:10DDF0000021FF200930015101200521090261188D
:10DE000008602046FEBD0000003000400040004099
:10DE1000FFB581B000270026019D1F48019D854266
:10DE200001D1182400E0182400BF0120A0401B49A4
:10DE3000C86000BF27E00398805D052109026918CA
:10DE4000C86100E07F1CFF2009304059002803D141
:10DE5000032000038742F5D303200003874205D146
:10DE60002046FFF70DF9002005B0F0BD0021FF208E
:10DE7000093041510520000228188069C1B2049878
:10DE80008155701C86B202988642D4DB2046FFF78B
:10DE9000F7F80120E8E700000030004000050050DE
:10DEA000F8B506460C46FEF769FC05000F4600D0A3
:10DEB0000120014349000B484908411AC90F0DD000
:10DEC000002E01D0012100E000210C43610049082F
:10DED000401AC00F02D10120FEF79EFD28463946A8
:10DEE000F8BD00000000F07F000000000000F03FDF
:10DEF000000000000000F83F0000000000000000EB
:10DF00000000004003B8E23F0000000000000000F5
:10DF100006D0CF43EBFD4C3E033333333333E33F83
:10DF2000FFAB6FDBB66DDB3F4D268F515555D53FAF
:10DF300001411DA96074D13F65DBC9934A86CD3F7D
:10DF4000EF4E454A287ECA3F3E5555555555C53F6B
:10DF500093BDBE166CC166BF2CDE25AF6A56113F5D
:10DF6000F16BD2C541BDBBBED0A4BE726937663E5F
:10DF7000000000000000000088DF00000009002011
:10DF8000281000001EC80000301600000062630068
:10DF900065BE012026425C48A00321E42031A10691
:10DFA000100684012363011F10180000200B435842
:10DFB000C0FE43C0447A7E200BC0C0C0C8FF43ED02
:10DFC00044082005F6FF43EC081023C8FF412394C2
:10DFD000D043EE44D243EF44205A706071617868B8
:10DFE000027AF343C7FE41EB455A21DF4601512A2D
:10DFF000100E4355ED45EC51F4412388EA45F506F2
:10E000003023E9451D414358EA2199E95046EB4444
:10E01000A902EB5943CAFE415CA803C05AEB45EB89
:10E0200041F245F62B32F72B021A1F2B5008F3450D
:10E0300002FFFFFF470150067C7D4541020CA0070F
:10E04000F07C6D45416C11E26C1ED10F6129032DEE
:10E05000024F01032D024E01032D025601032E0231
:10E060005E011006026AFD4340C91405EB457AF9CA
:10E07000412405EB2199EABE86F1BE1405ED45C0A9
:10E0800041D01021F8FF43E9446A1D43AB01EA582F
:10E090008E03EC531D501F44EC53ED53E943EC58F1
:10E0A000ACE68E262372F9352903213522FC351082
:10E0B0000F1D431F59E943ED53EC5358ACF27A5D01
:10E0C00022C9287004E744E82C131F43EE2177226D
:10E0D000CF65138E070A22CB6F13405D3C180421D5
:10E0E000CAE84A400C1D45F843AB0CC041ED535300
:10E0F0002E6011E753C041E853E75341EC45E94333
:10E100005CACD33E13E8410F12A82A1004E8435335
:10E11000371808445943ABEBC84365100F447A8A5B
:10E120001BC043405D5D9015C845C94F1012AA0B36
:10E13000CA45CB45CC45CD45CE45CF450002C0585C
:10E1400013EA448012060A2109117232130B134E8E
:10E150005096100408C0430A210B49AC500E4E4E95
:10E16000E9519101235AEA43E95192085293085226
:10E1700094085295085296085297301302E992215A
:10E18000D51405027AFA417E2017E7455AFB43E78A
:10E190007521CA65D0455AFC43E721CAD1455AFDCD
:10E1A00008180FD245796902D7FE43E7455DAD01F6
:10E1B0005D7D280E1F431D44C043EC51ED515DAA07
:10E1C000F2D501FF0101FF0101FF0101FF0101FF84
:10E1D0000101FF0101FF0101FF0101FF0101FF0139
:10E1E00001FF0101FF01A10100043D020103424EB4
:0CE1F00000E20F0119013324F4220000AA
:040000050000C0C176
:00000001FF
