:020000040000FA
:10C0000068210020F5C0000007C1000009C1000040
:10C010000000000000000000000000000000000020
:10C020000000000000000000000000000BC1000044
:10C0300000000000000000000DC100000FC1000062
:10C0400011C1000011C1000011C1000011C10000A8
:10C0500011C100000000000011C1000011C100006A
:10C0600011C1000011C1000011C1000011C1000088
:10C0700011C1000011C1000011C1000011C1000078
:10C0800011C1000011C1000011C1000011C1000068
:10C0900011C1000011C1000011C1000011C1000058
:10C0A00011C1000011C100000000000000000000EC
:10C0B0000000000000000000000000000000000080
:10C0C0000348854600F026FB0048004705CD0000E8
:10C0D00068210020401E00BF00BF00BF00BF00BF9E
:10C0E00000BF00BF00BF00BF00BF00BF00BFF1D155
:10C0F00070470000074802680F210A4302600648A3
:10C10000804706480047FEE7FEE7FEE7FEE7FEE75A
:10C11000FEE7000024050040A1C80000C1C00000E7
:10C12000D2B201E00270401C491EFBD270470022CF
:10C13000F6E710B513460A4604461946FFF7F0FF26
:10C14000204610BD024670B54A40D30FDB074000C1
:10C150002DD04A002AD0010E140E09190002120235
:10C16000400A520A8418E50104465443000A120AA0
:10C170002E045043A4194219200CC543AA18120CCE
:10C1800001257F39521CAD0352191204240400D03A
:10C19000521C104301D44000491EC2B20C06C00913
:10C1A0002018401C4008802A02D003E0002070BD07
:10C1B00040084000002900DA0020184370BD00004C
:10C1C000F0B50C465C4085B0E40FE40703944C00E6
:10C1D0000026640859009446490802460296224304
:10C1E00021D062460A431ED06200570D4A000E035A
:10C1F0002303550D012402462C492405781B1B0BF3
:10C20000360B401823432643614600901C46501AC3
:10C21000B44103D30098401C009002E092180098AB
:10C220005B41002803DA0020014605B0F0BD002084
:10C23000012109050746864611E064461D46141B88
:10C24000B54106D36546521BB341744607430C43C0
:10C25000A646CD0740084908284392185B41054689
:10C260000D43EAD11046184313D06046194650409A
:10C270007140084303D100220123DB0709E0604637
:10C28000101AB34102D20122002302E00122D2435C
:10C290005310009874460105381C6141029C039DAF
:10C2A0000019694100F07DF8BFE70000FD030000C0
:10C2B00010B500229623114600F039F810BDC20FC8
:10C2C000D207400040080BD0C10D0723DB01C9187D
:10C2D00040020905400A1143C20840071143704754
:10C2E000002001467047CB0FDB07490010B5490815
:10C2F00002460A4307D00A0D07240903E401090B8B
:10C30000121B002A01DC002010BDC900440F0C43A1
:10C31000C100E018D205801800F001F810BD002916
:10C3200004DA401C490001D140084000704770B455
:10C330000024050C05D11024000402D1002922D0CC
:10C340001124050E01D108340002050F01D1241D6E
:10C350000001850F01D1A41C8000002801DB641CB2
:10C360004000002908D020252E1B0D46F540A14095
:10C3700000D00121294308431B1B0106DB1D000AD5
:10C38000002B02DA002070BC7047DB0518188018FB
:10C390000029F8DA401C4900F5D170BC4008400083
:10C3A000704710B5002B08DA0024401C6141921838
:10C3B0005B411A4301D14008400010BDF0B51FB4E5
:10C3C00082B005460C0003D0084600F085FA02E072
:10C3D00000F082FA2030024600902146284600F004
:10C3E000ABF9049B059A04460F46184311430843D2
:10C3F00003D12046394607B0F0BD1846104317D088
:10C40000009840210A1A1846059900F0A5F905463A
:10C410000E46009A0599049800F08EF9084301D061
:10C42000012000E00020C11705430E432C43374391
:10C4300000990E986305401A7905E40A0A30002233
:10C440000C43FD0A002802DA00200146D3E701056B
:10C45000101969410C9C0D9D00196941FFF7A1FF5E
:10C46000C9E70000F0B507460846584087B0C00F3E
:10C47000049048000E46590040084908BC1A8841FB
:10C4800005D2384631461E4617460B46024658002E
:10C490004008104303D13846314607B0F0BD300D97
:10C4A000039040055900400D490D0590401A029037
:10C4B00040286DDA18030121000B0905084301909B
:10C4C00004980092002805D001995242002088412A
:10C4D00000920190029840210A1A0199009800F0F8
:10C4E0002BF905460C46684607C800F046F9C01906
:10C4F0007141039A0E0D0023D71756401A467A4011
:10C50000164340D0049A002A29D0029A012A039A9D
:10C5100011DC1205C01A914101263605001C71413B
:10C52000D20F059ED2070093019202962A46234617
:10C53000FFF744FFB1E71605224A0F46B218C01AAA
:10C54000B74101210905001C4F4100187F411146E8
:10C5500018187941E20F10436D19644113E0E207A6
:10C560006D0815436408C2071443039A0126120597
:10C57000C01A91413605001C7141CE074008304376
:10C580004908C01851412A462346FFF70AFF84E7AD
:10C59000049801224000C117121A00238B4104980D
:10C5A0003146C417381AA141EFE730B40124E4073B
:10C5B000634030BC56E730B40124E407614030BC2E
:10C5C00050E700000000E0FFF0B51FB488B00B9901
:10C5D0000998002448400999C00F49004908099169
:10C5E000C0070B990090490049080B9109990898D8
:10C5F000A646084303D00B990A98084303D10020AC
:10C6000001460DB0F0BD099801244000420D4800DC
:10C61000410D099824050003000B204309900B9855
:10C620000003000B20430B9050181A4940180022B9
:10C6300001901446104601E0032801DA034600E0A9
:10C6400003239C46C11A0AAE0AE05F0008ADED5B09
:10C650004F00F75B7D430027AA187C415B1E491CF5
:10C660006145F2DD410004AB5A522104120C0A4329
:10C67000240C401C0828DFDB0198029000997046CA
:10C6800001910090059B049A07990698FFF796FE82
:10C69000B7E700000DFCFFFF70B54B005B080343DC
:10C6A0000BD04B005C0D002633466542B341D417D6
:10C6B000AD1AA34102DB0020014670BD12053018FF
:10C6C000514170BD0EB5C217C10F5040CA07401886
:10C6D0000021054B0293019200910A460B46FFF799
:10C6E0006DFE03B000BD00003304000010B500294A
:10C6F00004DB0124E40740428C412146002B04DB8B
:10C700001C460123DB075242A341994200D19042CB
:10C7100010BD0000064C0125064E05E02046E368EA
:10C7200007C82B4398471034B442F7D3FFF7CCFC2B
:10C7300038DF000048DF000010B5202A04DB014686
:10C74000203A9140002010BD914020239C1A0346BE
:10C75000E3401943904010BD10B5202A04DB084681
:10C76000203AD040002110BD0B46D340D0402024B9
:10C77000A21A91400843194610BD10B5202A06DBC5
:10C78000CB170846203A1041C1170B4306E00B4671
:10C790001341D0402024A21A91400843194610BDED
:10C7A000FEB500231A461B1A8A4103DB002001460E
:10C7B00003B0F0BD4A000D0301212D0B0905520DF8
:10C7C0000D43D10702D100186D41521E5110FF31A7
:10C7D000FF310131002704463E463846009701915B
:10C7E0000246012100200905FFF7B6FFC319714178
:10C7F000F818324684468E464A4161462846611AF8
:10C80000904104D36046241A954176461F46241968
:10C8100000986D41401C00903428E1DDF919304644
:10C820007041091BA84103D20022D243134601E004
:10C830000022134601980105381C7141FFF7B1FD34
:10C84000B6E770B58D180478401CA207920F01D18D
:10C850000278401C231106D10378401C03E00678BF
:10C86000401C0E70491C521EF9D1002B14D00278C6
:10C870000C26401C8A1A34400C2C03D0A401121B35
:10C880009B1C07E00478401C2402F8E71478521C33
:10C890000C70491C5B1EF9D5A942D4D3002070BD91
:10C8A00010B500F0FDF9002805D007480749486099
:10C8B000C8130749886100F0D9F9002802D0012087
:10C8C0000449886010BD0000DFFF07C0000500407C
:10C8D000006C0040000600402021020C01D0102115
:10C8E0001046020A01D008391046020901D0091F7A
:10C8F0001046820801D0891E1046420801D0881EC9
:10C900007047081A704700004900CA02104300D05F
:10C9100004204A0D01D001221043054A490D9142DD
:10C9200001D102210843012800D1052070470000F1
:10C93000FF070000F8B504464F1EC800083821184C
:10C9400015461E46086849683A4606239A4310D0A1
:10C950002A463346FFF738FE3A46D200083AA31873
:10C960001A687F1E5B68FFF77DFD06223B469343F6
:10C97000EED1022F23D0042F11D0062F2FD12A461B
:10C980003346FFF721FEE36AA26AFFF76BFD2A46F2
:10C990003346FFF719FE636A226AFFF763FD2A46F2
:10C9A0003346FFF711FEE369A269FFF75BFD2A46F4
:10C9B0003346FFF709FE63692269FFF753FD2A46F4
:10C9C0003346FFF701FEE368A268FFF74BFD2A46F6
:10C9D0003346FFF7F9FD63682268FFF743FDF8BDB2
:10C9E000034A10B500201107FFF756FE10BD0000E6
:10C9F00001FDFFFF02E008C8121F08C1002AFAD19A
:10CA000070477047002001E001C1121F002AFBD1CE
:10CA1000704700000149086070470000201900209D
:10CA200010B500231A4620211846C2DF0446002C08
:10CA300001D0012010BD0223012211460020D3DFC6
:10CA40000446002C01D00120F4E742210020CDDF74
:10CA50000446002C01D00120ECE707490020D1DF7B
:10CA60000446002C01D00120E4E7002C01D0012075
:10CA7000E0E70020DEE7000066060000F0B599B0B0
:10CA8000044604200F210191029003910490082094
:10CA90000023042202210090104600F0D5FA0590F0
:10CAA00053480690002008220B2303900193029222
:10CAB000049004200623024601460090FF2000F067
:10CAC000C3FA079000200D22642303900193029281
:10CAD00004900320002306220D210090184600F048
:10CAE000B3FA089004200021019102900391049070
:10CAF0000A20042302220090084600F0A5FA0990BB
:10CB000000200190029003900490034616220146F3
:10CB1000009000F099FA0A90002008224023039028
:10CB200001930292049007200023012219460090ED
:10CB3000184600F089FA0B901F2000040C90042086
:10CB400000210122019102920B4600920391049070
:10CB5000104600F079FAC5B20020019002900390CF
:10CB6000049001200023024619460090184600F068
:10CB70006BFAC6B2042003220290049000230396AD
:10CB80000192009002461946284600F05DFA0D9089
:10CB900004200F21082200230490019302920391A4
:10CBA00000900246084600F04FFA0E9000200190D7
:10CBB00002900390049008208723024600210090F1
:10CBC000182000F041FA0F90002010901190129060
:10CBD000139014901590169017900120400518900E
:10CBE00005A9204600F06EFA0746384619B0F0BD98
:10CBF00022102000F1B584B00498FFF759FB039090
:10CC000000220B4B1046990300F034FB0191009079
:10CC10000398FFF754FB0446019B009AFFF7D0FAF4
:10CC20000646FFF760FB0290029805B0F0BD0000D9
:10CC300000003540F8B50C4615461E4632462946DA
:10CC4000204600F01BFA074A08210020C7DF0746EC
:10CC5000002F01D000F008F87D20C00000F0CAF9D4
:10CC6000F8BD00001119002000BFFEE70B48008C42
:10CC7000C0B2012810D10948808C0007000F0BD1E9
:10CC80000648806AF0210840402805D10348C06A60
:10CC9000084201D1012070470020FCE7C00F00F0DE
:10CCA0001748008CC0B2012827D11548808C000796
:10CCB000000F22D11248806AF021084205D11048A5
:10CCC000C06A084201D1012070470D48806AF021F6
:10CCD0000840102805D10A48C06A084201D1012045
:10CCE000F2E70748806AF0210840302805D104485F
:10CCF000C06A084201D10120E6E70020E4E7000015
:10CD0000C00F00F0F0B595B0012010900F900020FA
:10CD10000E900390B04910DF0646002E01D000BFF0
:10CD2000FEE7FFF77DFE0646002E01D000BFFEE7BE
:10CD30000520AA4908700A4608210020C7DF0646D8
:10CD4000012000F079FA0290029800F037FA42E1EF
:10CD5000002003900820A24908700821A148FFF78D
:10CD6000E6F90821A048FFF7E2F910209D49087074
:10CD7000082048700A469A480178029800F066FA3E
:10CD80001390642000F036F908219648FFF7CFF998
:10CD900008219548FFF7CBF90298FFF76FFE149032
:10CDA00008208F49087008218E48FFF7C0F9082134
:10CDB0008D48FFF7BCF98A208A490870642000F08A
:10CDC00019F9884A86480178029800F03FFA1390D2
:10CDD00008208349087008218248FFF7A8F9082134
:10CDE0008148FFF7A4F98C207E490870642000F088
:10CDF00001F97C4A7A480178029800F027FA1290EB
:10CE00007D20C00000F0F6F808217648FFF78FF982
:10CE100008217548FFF78BF90821029800F01EFFE2
:10CE2000044608216F48FFF782F908216E48FFF792
:10CE30007EF90021029800F011FF6C49086008217A
:10CE40006848FFF774F908216748FFF770F9012176
:10CE5000029800F003FF6549486008216148FFF728
:10CE600066F908216048FFF762F90221029800F094
:10CE7000F5FE5E49886008215A48FFF758F90821F5
:10CE80005948FFF754F90321029800F0E7FE57498B
:10CE9000C86008215348FFF74AF908215248FFF7B4
:10CEA00046F90421029800F0D9FE50490861082192
:10CEB0004C48FFF73CF908214B48FFF738F90521AA
:10CEC000029800F0CBFE4949486108214548FFF728
:10CED0002EF908214448FFF72AF90621029800F0AC
:10CEE000BDFE4249886108213E48FFF720F908212C
:10CEF0003D48FFF71CF90721029800F0AFFE3B49BF
:10CF0000C861002C08D10846002805D108464068B1
:10CF1000002801D1012000E0002011902002C70F5D
:10CF20006002C00F0D902003C00F0C902004C00FB2
:10CF30000B90E004C00F0A90E005000F0990200755
:10CF4000C00F089029490868FFF754FE284901904E
:10CF5000FFF7F8F804900020C4DF0646002E02D048
:10CF6000012015B0F0BD002500BF681CC5B2012D21
:10CF700002D0022D22D110E01C494868FFF73AFE8A
:10CF80001B490190FFF7DEF8069018482246012160
:10CF900043680798FFF74EFE10E014498868FFF7D2
:10CFA00029FE13490190FFF7CDF805900F48C3689B
:10CFB000022182680798FFF73DFE00BF00BF0020F6
:10CFC0000F90032DD1DB00250F9001200E90002043
:10CFD000C5DF064631DFBBE6C5DC000011190020C5
:10CFE0001019002000190020081900204419002001
:10CFF00000003C4201B505E00098401E0090034847
:10D00000FFF768F800980028F6D108BDE703000094
:10D0100010B58A0005231B07072424021B1984006E
:10D020001A5110BD01210522120707231B02D21835
:10D030008300D1507047000001218140014A916076
:10D040007047000000050050F0B50446059D2046DD
:10D05000064696400E4330460646AE401E433046D6
:10D060000646079FBE40069F3E4330460646099F40
:10D07000BE40089F3E433046F0BD000030B5034639
:10D0800005200F4C207020464370022008E0042445
:10D09000241AE5000C46EC40094D2C54441CE0B227
:10D0A0000528F4DB052008E00724241AE5001446CF
:10D0B000EC40034D2C54441CE0B20828F4DB30BD96
:10D0C00011190020F3B583B00F4600200290042010
:10D0D000374908700325A801054614352D0600249C
:10D0E00008E00320001BC1002846C840314908550C
:10D0F000601CC4B2042CF4DB2E4A2D48017803983E
:10D1000000F0A4F80190002628E002960325A8016B
:10D11000029E304305462806B1007958084305466B
:10D12000002408E00320001BC1002846C840214914
:10D130000855601CC4B2042CF4DB1E4A1C4801785C
:10D14000039800F083F8019008211A48FEF7EFFFDA
:10D1500008211948FEF7EBFF701CC6B2142ED4DB71
:10D160006420FFF747FF0325A8010546143528066C
:10D17000451C00240FE00320001BC1002846C840C6
:10D180000C4908550A460A480178039800F05EF8F1
:10D190000190601CC4B2042CEDDB064A04480178FF
:10D1A000039800F053F80190019805B0F0BD00001D
:10D1B000101900200019002008190020F1B582B0D4
:10D1C0000027042018490870002427E02746092674
:10D1D00030033843064630021449095D08430646C9
:10D1E000002508E00220401BC1003046C84010491D
:10D1F0004855681CC5B2032DF4DB0D4A0A48017876
:10D20000029800F023F8019008210948FEF78FFFEB
:10D2100008210848FEF78BFF601C84B20120000340
:10D220008442D3DB0198FEBD1019002000090020C4
:10D23000001900200819002070B5044600220121C1
:10D24000204600F041FD0546284670BDF8B504466D
:10D250000D461646064B32462946204600F0B6FDDE
:10D260000746002F01D00120F8BD0020FCE7000098
:10D2700008190020F0B51FB496B0054684460C4648
:10D280001898199A00904900500063004908400816
:10D290000493002D01D0012600E000269E19FE4BCC
:10D2A000F318FE4EB3420AD3009E5300002E00D066
:10D2B00001269F19F84EBF197610B74207D2604673
:10D2C0002146199B189AFFF7CDF81BB0F0BD009FBF
:10D2D00006463E4371D0F24EB44201D1002D6CD0CF
:10D2E0006746049E002F00D00127F719ED4EB74284
:10D2F00006D8009F002F00D00127DB19B34207D9C1
:10D3000028462146199B189AFFF7ACF81BB0F0BDD0
:10D3100000230793002C2EDAE34B98422BDAE34BE1
:10D32000984201DB022325E0DD4B984223DBE04BF2
:10D33000060DF318142B0EDD3426F71A009BFB4064
:10D340001E46BE40009FBE4215D1DE07F60F0223E7
:10D350009B1B07930FE0009E002E0CD11426F61A9B
:10D360000346F3401F46B340834204D1FE07F60F45
:10D3700002239B1B079363460B431FD1002A1DDA30
:10D38000002C04D00798022801D001280AD00220DE
:10D39000FFF740FB002213461046C149FEF710FF7D
:10D3A0001BB0F0BD0220FFF735FB2A4623460020C4
:10D3B000BB49FEF705FF1BB0F0BD14E0009B002B3E
:10D3C00062D1B94B984221D1BA48844202D1604619
:10D3D000002808D0B248814209DB002A10DB1898E7
:10D3E00011461BB0F0BD0020AD491BB0F0BD002AB6
:10D3F00006DA11460122D207189851401BB0F0BD41
:10D40000AD497944086849681BB0F0BDA44EB042EC
:10D4100024D1002A1EDA002905D0994213D1604692
:10D42000002809D016E06046002875D19E49E20F19
:10D43000D20711431BB0F0BD0020E20F0146D20716
:10D4400011431BB0F0BD994204DA2A46234600205E
:10D45000314669E0284621461BB0F0BD994213DAF7
:10D4600001239B079A4204D12A46234610461946B7
:10D47000EBE3924B9A4207D1231E05DB284619465F
:10D4800000F0ECFC1BB0F0BD63005B086646002EAC
:10D4900030D100290AD0844EB1422BD1002C0FDDAF
:10D4A000002A1EDB002031461BB0F0BD0798022881
:10D4B00017D0002C15D0012813D1002C15DB10E05B
:10D4C000002C17DA0798002A09DB012803D0002076
:10D4D00075491BB0F0BD002079491BB0F0BD012893
:10D4E00003D0002001461BB0F0BD00200121C90778
:10D4F0001BB0F0BDE617761C079F0D963E430CD07F
:10D50000704EB0427EDD704E704BB04216DD9942D7
:10D510000EDC002A1CDB28E05FE20120FFF77AFA2C
:10D520000022134610461146FEF74AFE1BB0F0BD1E
:10D530005B48814202DB002A0ADC16E0994202DAEB
:10D54000002A05DB11E0564B994217DD002A0CDD5D
:10D550000220FFF75FFA07215D4A00200907FFF765
:10D560009BF849004908002251E20220FFF752FAD5
:10D57000FFF736FA49004908002248E2002228460F
:10D580002146FFF712F8012204460D46D243FFF769
:10D5900083F8504A504BFFF70EF822462B46FFF710
:10D5A00013F80022454BFFF706F806460F462246C1
:10D5B0002B4610461946FFF707F83B463246FFF761
:10D5C00003F80646032209915207444B2046294698
:10D5D000FEF7FAFF0F460C90414A404B304609993E
:10D5E000FEF7F2FF064602913E4A3F4B204629468F
:10D5F000FEF7EAFF3246029BFEF7D7FF04460B46D2
:10D60000024600E011E0099139460C98FEF72AFF26
:10D6100000250E463B4628460C9AFEF7C6FF2246DA
:10D62000099BFEF7C8FF0B468EE10124002024056C
:10D63000A14207DA352228461946FFF72DF805469C
:10D640003420C0430A151218194810180490080312
:10D65000000B134906460E432449884201DC002092
:10D6600003E02349884202DA0120074604E00498D7
:10D670000027401C361B04901E49F80079440F9087
:10D6800008184368026828463146FEF78EFF01916C
:10D6900019490C90794431E0FFFF1F00FFFF0F0094
:10D6A0000000F03F0000E0FF0000F07F000040437A
:10D6B00001FCFFFF0000F0BF2A0B00000000E03F6C
:10D6C0000000F0FF0000E0410000F043FFFFEF3FEB
:10D6D00001030000555555555555D53F4715F73FA2
:10D6E000FE822B6544DF5DF80BAE543E8E9803003E
:10D6F0007AB60B0028080000100800000F980818E0
:10D700004368026828463146FEF7ACFE02460B46E7
:10D710000020FE49FEF754FD09910E90019B0C9AE2
:10D72000FEF752FF05910A900B91F94801217844C8
:10D7300000681290701049070843B904401801218D
:10D74000C9044718F3490F987944081843680268D8
:10D75000002439461298FEF728FF2A463346FEF782
:10D760002AFF02460B4620460B99FEF72DFF054681
:10D7700000913B462046129A0B99FEF725FF019B2C
:10D780000C9AFEF718FF2A46009BFEF70EFF099B36
:10D790000E9AFEF719FF109105990A9A0E900B4602
:10D7A0001046FEF711FF05460246DB480E460B46C3
:10D7B00006217844FFF7BEF807462A46334606910D
:10D7C00010461946FEF700FF3A46069BFEF7FCFEA0
:10D7D00005460E462046059B0A9A0B99FEF742FE27
:10D7E000109B0E9AFEF7F0FE2A463346FEF73AFEED
:10D7F000019106900B9922460B461046FEF7E4FE77
:10D80000C64D00222B4603910090FEF72BFE019B94
:10D81000069AFEF727FE0F4622462B462046FEF7C5
:10D82000C4FE039B009AFEF7C0FE019B069AFEF71A
:10D83000C2FE05460E4622463B4610460B99FEF7B1
:10D84000C3FE01910C9028463146059B0A9AFEF7CB
:10D85000BBFE05460E463B46224610990E98FEF743
:10D86000B3FE33462A46FEF7FDFD06460F460B463D
:10D87000024601990C98FEF7F5FD00200D4604467E
:10D88000019B0C9AFEF791FE3B463246FEF793FE53
:10D8900006460F4607225207A14B20462946FEF7AF
:10D8A00093FE019102909F4A9D4B30463946FEF708
:10D8B0008BFE06460F469C4A9C4B20462946FEF7A7
:10D8C00083FE32463B46FEF7CDFD994A04467A4434
:10D8D0000F981018436802682046FEF7C3FD0591B3
:10D8E0000A900498FEF7EEFE07460391059B0A9AFC
:10D8F00001990298FEF7B6FD8E4A04467A440F98C5
:10D900001018436802682046FEF7ACFD3A46039BB8
:10D91000FEF7A8FD00250E463A462846039BFEF773
:10D9200044FE854A04467A440F98101843680268FA
:10D930002046FEF73AFE019B029AFEF736FE059B53
:10D940000A9AFEF738FE0B4600210A91079A0D99B4
:10D950006E4C521E114301D1784C0A910022199944
:10D96000049202460F461898FEF72EFE009007918B
:10D970003B46049A19991898FEF717FE2A46334633
:10D98000FEF722FE079B009AFEF76CFD09911090AE
:10D990002A46334639460498FEF716FE06460F46D9
:10D9A000099B109AFEF75EFD654A0D46914224DB05
:10D9B0005242AA18024310D132463B46FEF7F5FD0B
:10D9C000049003915F4A604B09991098FEF74AFD55
:10D9D000039B049AFEF78AFE2FD20220FFF71AF863
:10D9E00007215A4A00200907FEF756FE4900490858
:10D9F000E20FD20711431BB0F0BD6A00544B52082E
:10DA00009A421AD3534AAA1802430CD102E0114396
:10DA10001BB0F0BD32463B46FEF7C7FD099B109A8E
:10DA2000FEF764FE09D80220FEF7F4FFFEF7D8FFE8
:10DA300049004908E20FD207E9E7680000234008DF
:10DA400045490493020D454B5218984223DD521C60
:10DA500001200005D04040194200520D5118404AA3
:10DA60007A441268034694463E4ACA4093430203EE
:10DA70000120120B000510181422511AC8400490FE
:10DA8000002D01DA40420490624630463946FEF7E6
:10DA90008CFD06460F4632463B4609991098FEF724
:10DAA000E1FC00200D4602462F4B0E90FEF78CFD48
:10DAB00001910C902D4A2E4B29460E98FEF784FDBD
:10DAC0000791129032463B4629460E98FEF76DFDAF
:10DAD000099B109AFEF76FFD264A274BFEF774FD4F
:10DAE000079B129AFEF7BEFC07460B4602460991B9
:10DAF00001990C98FEF7B6FC0E460546019B0C9A60
:10DB0000FEF753FD3A46099B38E000000000F03F65
:10DB1000FE0700005C07000022070000000008402C
:10DB200009C7EE3FFD033ADCF5015B14E02F3EBE72
:10DB3000F6050000B80500008E0500000000F0BFEB
:10DB400000009040FE822B654715973C01030000C2
:10DB500000CC904000346F3F01FCFFFF0000E03F2D
:10DB6000CC040000FFFF0F00432EE63F396CA80CE9
:10DB7000615C20BEEF39FAFE422EE63FFEF71BFD48
:10DB80002A4633460991109010461946FEF71CFDAF
:10DB900002460E902F480F460B4605217844FEF7AB
:10DBA000C9FE3B460E9AFEF70FFD2A463346FEF7A6
:10DBB00002FD0746089128463146099B109AFEF758
:10DBC00003FD099B109AFEF74DFC012303910C9075
:10DBD00000229B0738460899FEF7E7FC01910E905A
:10DBE0003A4628463146089BFEF7EEFC019B0E9A0A
:10DBF000FEF7E6FA039B0C9AFEF7D7FC2A4633465B
:10DC0000FEF7D3FC0022144BFEF7D5FC0646049821
:10DC10000D46000541190915002911DC3046294639
:10DC2000049AFEF739FDFEF76FFE042801D1FEF7D6
:10DC3000D7FE30462946049AFEF72EFD064600E040
:10DC400029180B46324621460A98FEF7BDFC1BB048
:10DC5000F0BD0000680300000000F03FF0B587B0A1
:10DC600007460C460420144908700126B0012043E1
:10DC7000C6B2124806706420FFF7BCF90F4A0E487E
:10DC800001783846FFF7E2FA05460020019002903D
:10DC90000390049008200A4A0090D3789178507835
:10DCA0000822FFF7D1F90690002D02D1284607B0CF
:10DCB000F0BD0698FBE700001019002000190020B5
:10DCC0000819002000BFFEE7F7B506460F46002EF4
:10DCD00001D13C4800E03C480446002E1FD11720EB
:10DCE000FFF7A0F91920FFF79DF900211620FFF793
:10DCF0008FF91820FFF796F91720052109026118FE
:10DD000088601920052109026118C86016200521C4
:10DD10000902611808611820FFF78EF91EE017202C
:10DD2000FFF780F91920FFF77DF900211620FFF792
:10DD30006FF91820FFF776F91720052109026118FD
:10DD400088601920052109026118C8601620052184
:10DD50000902611808611820FFF76EF90120000719
:10DD60000521090261184862002F06D0012F06D054
:10DD7000022F06D0032F08D105E0002507E0022579
:10DD800005E0042503E0062501E0002500BF00BFF3
:10DD90000298002806D00120284315218901611826
:10DDA000486103E015208001201845610021FF2013
:10DDB000093001510120052109026118086020463F
:10DDC000FEBD00000030004000400040FFB581B0C3
:10DDD00000270026019D1F48019D854201D118247E
:10DDE00000E0182400BF0120A0401B49C86000BF0C
:10DDF00027E00398805D052109026918C86100E0E9
:10DE00007F1CFF2009304059002803D10320000364
:10DE10008742F5D303200003874205D12046FFF750
:10DE20000BF9002005B0F0BD0021FF200930415161
:10DE30000520000228188069C1B204988155701C21
:10DE400086B202988642D4DB2046FFF7F5F801201F
:10DE5000E8E700000030004000050050F8B5064635
:10DE60000C46FEF79DFC05000F4600D00120014343
:10DE700049000B484908411AC90F0DD0002E01D0A6
:10DE8000012100E000210C4361004908401AC00F45
:10DE900002D10120FEF7BEFD28463946F8BD00003C
:10DEA0000000F07F00000000000000000000F03FD4
:10DEB000000000000000F83F00000000000000002B
:10DEC0000000004003B8E23F000000000000000036
:10DED00006D0CF43EBFD4C3E033333333333E33FC4
:10DEE000FFAB6FDBB66DDB3F4D268F515555D53FF0
:10DEF00001411DA96074D13F65DBC9934A86CD3FBE
:10DF0000EF4E454A287ECA3F3E5555555555C53FAB
:10DF100093BDBE166CC166BF2CDE25AF6A56113F9D
:10DF2000F16BD2C541BDBBBED0A4BE726937663E9F
:10DF3000000000000000000048DF00000009002091
:10DF40002410000042C80000301600000062630088
:10DF500065BE012026425C48A00321E42031A106D1
:10DF6000100684012363011F10180000200B435882
:10DF7000C0FE43C0447A7E200BC0C0C0C8FF43ED42
:10DF800044082005F6FF43EC081023C8FF41239402
:10DF9000D043EE44D243EF44205A706071617868F8
:10DFA000027AF343C7FE41EB455A21DF4601512A6D
:10DFB000100E4355ED45EC51F4412388EA45F50632
:10DFC0003023E9451D414358EA2199E95046EB4485
:10DFD000A902EB5943CAFE415CA803C05AEB45EBCA
:10DFE00041F245F62B32F72B021A1F2B5008F3454E
:10DFF00002FFFFFF470150067C7D4541020CA00750
:10E00000F07C6D45416C11E26C1ED10F6129032D2E
:10E01000024F01032D024E01032D025601032E0271
:10E020005E011006026AFD4340C91405EB457AF90A
:10E03000412405EB2199EABE86F1BE1405ED45C0E9
:10E0400041D01021F8FF43E9446A1D43AB01EA586F
:10E050008E03EC531D501F44EC53ED53E943EC5831
:10E06000ACE68E262372F9352903213522FC3510C2
:10E070000F1D431F59E943ED53EC5358ACF27A5D41
:10E0800022C9287004E744E82C131F43EE217722AD
:10E09000CF65138E070A22CB6F13405D3C18042115
:10E0A000CAE84A400C1D45F843AB0CC041ED535340
:10E0B0002E6011E753C041E853E75341EC45E94373
:10E0C0005CACD33E13E8410F12A82A1004E8435376
:10E0D000371808445943ABEBC84365100F447A8A9C
:10E0E0001BC043405D5D9015C845C94F1012AA0B77
:10E0F000CA45CB45CC45CD45CE45CF450002C0589D
:10E1000013EA448012060A2109117232130B134ECE
:10E110005096100408C0430A210B49AC500E4E4ED5
:10E12000E9519101235AEA43E95192085293085266
:10E1300094085295085296085297301302E992219A
:10E14000D51405027AFA417E2017E7455AFB43E7CA
:10E150007521CA65D0455AFC43E721CAD1455AFD0D
:10E1600008180FD245796902D7FE43E7455DAD0136
:10E170005D7D280E1F431D44C043EC51ED515DAA47
:10E18000F2D501FF0101FF0101FF0101FF0101FFC4
:10E190000101FF0101FF0101FF0101FF0101FF0179
:10E1A00001FF0101FF01A10100043D020103420240
:08E1B0001B00013324F42000E0
:040000050000C0C176
:00000001FF
