:020000040000FA
:10C0000068210020F5C0000007C1000009C1000040
:10C010000000000000000000000000000000000020
:10C020000000000000000000000000000BC1000044
:10C0300000000000000000000DC100000FC1000062
:10C0400011C1000011C1000011C1000011C10000A8
:10C0500011C100000000000011C1000011C100006A
:10C0600011C1000011C1000011C1000011C1000088
:10C0700011C1000011C1000011C1000011C1000078
:10C0800011C10000B9C8000011C1000011C10000B9
:10C0900011C1000011C1000011C1000011C1000058
:10C0A00011C1000011C100000000000000000000EC
:10C0B0000000000000000000000000000000000080
:10C0C0000348854600F066FB004800474DCD000060
:10C0D00068210020401E00BF00BF00BF00BF00BF9E
:10C0E00000BF00BF00BF00BF00BF00BF00BFF1D155
:10C0F00070470000074802680F210A4302600648A3
:10C10000804706480047FEE7FEE7FEE7FEE7FEE75A
:10C11000FEE7000024050040E1C80000C1C00000A7
:10C12000024670B54A40D30FDB0740002DD04A00CD
:10C130002AD0010E140E091900021202400A520AF6
:10C140008418E50104465443000A120A2E045043A1
:10C15000A4194219200CC543AA18120C01257F39D5
:10C16000521CAD0352191204240400D0521C104377
:10C1700001D44000491EC2B20C06C0092018401C60
:10C180004008802A02D003E0002070BD4008400033
:10C19000002900DA0020184370BD0000F0B5074602
:10C1A0000846584087B0C00F049048000E4659001A
:10C1B00040084908BC1A884105D2384631461E4617
:10C1C00017460B46024658004008104303D1384634
:10C1D000314607B0F0BD300D039040055900400DC9
:10C1E000490D0590401A029040286DDA180301218C
:10C1F000000B09050843019004980092002805D01F
:10C2000001995242002088410092019002984021F9
:10C210000A1A0199009800F0BDF905460C466846D7
:10C2200007C800F0D8F9C0197141039A0E0D002318
:10C23000D71756401A467A40164340D0049A002A2F
:10C2400029D0029A012A039A11DC1205C01A9141E1
:10C2500001263605001C7141D20F059ED2070093BE
:10C26000019202962A46234600F017FAB1E7160516
:10C27000224A0F46B218C01AB74101210905001C15
:10C280004F4100187F41114618187941E20F1043C1
:10C290006D19644113E0E2076D0815436408C20795
:10C2A0001443039A01261205C01A91413605001C59
:10C2B0007141CE07400830434908C01851412A4611
:10C2C000234600F0DDF984E7049801224000C117FD
:10C2D000121A00238B4104983146C417381AA14121
:10C2E000EFE730B40124E407634030BC56E730B4D4
:10C2F0000124E407614030BC50E700000000E0FF8B
:10C30000F0B51FB488B00B990998002448400999EA
:10C31000C00F490049080991C0070B9900904900D6
:10C3200049080B9109990898A646084303D00B9930
:10C330000A98084303D1002001460DB0F0BD0998CA
:10C3400001244000420D4800410D099824050003D6
:10C35000000B204309900B980003000B20430B9027
:10C3600050181A494018002201901446104601E066
:10C37000032801DA034600E003239C46C11A0AAEF3
:10C380000AE05F0008ADED5B4F00F75B7D430027DF
:10C39000AA187C415B1E491C6145F2DD410004ABDB
:10C3A0005A522104120C0A43240C401C0828DFDBDB
:10C3B000019802900099704601910090059B049AA3
:10C3C0000799069800F069F9B7E700000DFCFFFF38
:10C3D000F0B50C465C4085B0E40FE40703944C00D4
:10C3E00000266408590094464908024602962243F2
:10C3F00021D062460A431ED06200570D4A000E0348
:10C400002303550D012402462C492405781B1B0BE0
:10C41000360B401823432643614600901C46501AB1
:10C42000B44103D30098401C009002E09218009899
:10C430005B41002803DA0020014605B0F0BD002072
:10C44000012109050746864611E064461D46141B76
:10C45000B54106D36546521BB341744607430C43AE
:10C46000A646CD0740084908284392185B41054677
:10C470000D43EAD11046184313D060461946504088
:10C480007140084303D100220123DB0709E0604625
:10C49000101AB34102D20122002302E00122D2434A
:10C4A0005310009874460105381C6141029C039D9D
:10C4B0000019694100F0E4F8BFE70000FD03000047
:10C4C00010B500229623114600F0A0F810BD000020
:10C4D0000EB5C217C10F5040CA0740180021054BC6
:10C4E0000293019200910A460B4600F0D6F803B081
:10C4F00000BD0000330400004A0009030123090BBA
:10C500001B051943094B10B5520D9A4201DA002060
:10C5100010BD064B34339A4203DC9A1A00F04AF8F5
:10C5200010BD03495118884010BD0000FF030000F2
:10C53000CDFBFFFFC20FD207400040080BD0C10D5A
:10C540000723DB01C91840020905400A1143C2084C
:10C55000400711437047002001467047CB0FDB07AF
:10C56000490010B5490802460A4307D00A0D0724BE
:10C570000903E401090B121B002A01DC002010BD95
:10C58000C900440F0C43C100E018D205801800F028
:10C5900035F810BD10B5202A04DB0146203A914041
:10C5A000002010BD914020239C1A0346E34019430C
:10C5B000904010BD10B5202A04DB0846203AD04038
:10C5C000002110BD0B46D340D0402024A21A914038
:10C5D0000843194610BD10B5202A06DBCB170846C4
:10C5E000203A1041C1170B4306E00B461341D040DF
:10C5F0002024A21A91400843194610BD002904DAEC
:10C60000401C490001D140084000704770B400242C
:10C61000050C05D11024000402D1002922D01124D8
:10C62000050E01D108340002050F01D1241D0001BF
:10C63000850F01D1A41C8000002801DB641C400090
:10C64000002908D020252E1B0D46F540A14000D022
:10C650000121294308431B1B0106DB1D000A002B97
:10C6600002DA002070BC7047DB051818801800291A
:10C67000F8DA401C4900F5D170BC40084000704712
:10C6800010B5002B08DA0024401C614192185B4170
:10C690001A4301D14008400010BDF0B51FB482B06C
:10C6A00005460C0003D0084600F036F902E000F021
:10C6B00033F920300246009021462846FFF76AFFF2
:10C6C000049B059A04460F4618431143084303D1BF
:10C6D0002046394607B0F0BD1846104317D00098E1
:10C6E00040210A1A18460599FFF764FF05460E46D1
:10C6F000009A05990498FFF74DFF084301D00120E7
:10C7000000E00020C11705430E432C433743009936
:10C710000E986305401A7905E40A0A3000220C439A
:10C72000FD0A002802DA00200146D3E701051019AE
:10C7300069410C9C0D9D00196941FFF7A1FFC9E7F4
:10C7400070B54B005B0803430BD04B005C0D00261B
:10C7500033466542B341D417AD1AA34102DB002032
:10C76000014670BD12053018514170BD10B5002949
:10C7700004DB0124E40740428C412146002B04DB0A
:10C780001C460123DB075242A341994200D190424B
:10C7900010BD0000064C0125064E05E02046E3686A
:10C7A00007C82B4398471034B442F7D3FFF78CFCEB
:10C7B00060E0000070E00000FEB500231A461B1A7E
:10C7C0008A4103DB0020014603B0F0BD4A000D039F
:10C7D00001212D0B0905520D0D43D10702D100187F
:10C7E0006D41521E5110FF31FF31013100270446C7
:10C7F0003E46384600970191024601210020090576
:10C80000FFF7D8FEC3197141F818324684468E46A8
:10C810004A4161462846611A904104D36046241A71
:10C82000954176461F46241900986D41401C0090A2
:10C830003428E1DDF91930467041091BA84103D2C3
:10C840000022D243134601E000221346019801055D
:10C85000381C7141FFF714FFB6E770B58D180478E6
:10C86000401CA207920F01D10278401C231106D16F
:10C870000378401C03E00678401C0E70491C521ED1
:10C88000F9D1002B14D002780C26401C8A1A3440AF
:10C890000C2C03D0A401121B9B1C07E00478401C45
:10C8A0002402F8E71478521C0C70491C5B1EF9D561
:10C8B000A942D4D3002070BD06480068002807D0E4
:10C8C0000020044908600449086001200349886089
:10C8D0007047000040110140001900200010014085
:10C8E00010B500F001FA002805D007480749486054
:10C8F000C8130749886100F0DDF9002802D0012043
:10C900000449886010BD0000DFFF07C0000500403B
:10C91000006C0040000600402021020C01D01021D4
:10C920001046020A01D008391046020901D0091F39
:10C930001046820801D0891E1046420801D0881E88
:10C940007047081A704700004900CA02104300D01F
:10C9500004204A0D01D001221043054A490D91429D
:10C9600001D102210843012800D1052070470000B1
:10C97000FF070000F8B504464F1EC800083821180C
:10C9800015461E46086849683A4606239A4310D061
:10C990002A463346FFF7B4FC3A46D200083AA318B9
:10C9A0001A687F1E5B68FFF7F9FB06223B4693433C
:10C9B000EED1022F23D0042F11D0062F2FD12A46DB
:10C9C0003346FFF79DFCE36AA26AFFF7E7FB2A46BE
:10C9D0003346FFF795FC636A226AFFF7DFFB2A46BE
:10C9E0003346FFF78DFCE369A269FFF7D7FB2A46C0
:10C9F0003346FFF785FC63692269FFF7CFFB2A46C0
:10CA00003346FFF77DFCE368A268FFF7C7FB2A46C1
:10CA10003346FFF775FC63682268FFF7BFFBF8BD7C
:10CA2000034A10B500201107FFF78AFE10BD000071
:10CA300001FDFFFF02E008C8121F08C1002AFAD159
:10CA400070477047002001E001C1121F002AFBD18E
:10CA50007047000001490860704700002419002059
:10CA600010B500231A4620211846C2DF0446002CC8
:10CA700001D0012010BD0223012211460020D3DF86
:10CA80000446002C01D00120F4E742210020CDDF34
:10CA90000446002C01D00120ECE707490020D1DF3B
:10CAA0000446002C01D00120E4E7002C01D0012035
:10CAB000E0E70020DEE7000066060000F0B599B070
:10CAC000044604200F210191029003910490082054
:10CAD0000023042202210090104600F069FA05901C
:10CAE00055480690002008220B23039001930292E0
:10CAF000049004200623024601460090FF2000F027
:10CB000057FA079000200D226423039001930292AC
:10CB100004900320002306220D210090184600F007
:10CB200047FA089004200121002302900193039109
:10CB300004900A200423022200210090084600F0FD
:10CB400037FA099000200190029003900490034668
:10CB5000162201460090012000F02AFA0A900020D7
:10CB6000082240230390019302920490072000239F
:10CB7000012219460090184600F01AFA0B901F2067
:10CB800000040C90042000210122019102920B4626
:10CB9000009203910490104600F00AFAC5B20020FA
:10CBA0000190029003900490012000230246194650
:10CBB0000090184600F0FCF9C6B20420032202904F
:10CBC00004900023039601920090024619462846DD
:10CBD00000F0EEF90D9004200F21082200230490AC
:10CBE00001930292039100900246084600F0E0F99A
:10CBF0000E9000200190029003900490082087235B
:10CC0000024600210090182000F0D2F90F90002079
:10CC100010901190129013901490159016901790F8
:10CC200001204005189005A9204600F051FA07465A
:10CC3000384619B0F0BD000022102000F1B584B0D4
:10CC40000498FFF73DFC039000220B4B104699031C
:10CC500000F0AAFB019100900398FFF76BFC0446DB
:10CC6000019B009AFFF7B4FB0646FFF777FC0290A2
:10CC7000029805B0F0BD000000003540F8B50C4644
:10CC800015461E4632462946204600F0ABF9074AB3
:10CC900008210020C7DF0746002F01D000F008F868
:10CCA0007D20C00000F05AF9F8BD000015190020E1
:10CCB00000BFFEE70B48008CC0B2012810D1094824
:10CCC000808C0007000F0BD10648806AF0210840D5
:10CCD000402805D10348C06A084201D101207047AD
:10CCE0000020FCE7C00F00F01748008CC0B20128FC
:10CCF00027D11548808C0007000F22D11248806A86
:10CD0000F021084205D11048C06A084201D1012033
:10CD100070470D48806AF0210840102805D10A4864
:10CD2000C06A084201D10120F2E70748806AF02179
:10CD30000840302805D10448C06A084201D10120CA
:10CD4000E6E70020E4E70000C00F00F0F0B591B086
:10CD500001200D900C9000200B900290744910DF80
:10CD60000546002D01D000BFFEE700207149886014
:10CD700001200004704948606F494039486005202F
:10CD8000C0036C49403108601120012181406B4A89
:10CD9000116000BFFFF764FE0546002D01D000BF03
:10CDA000FEE7012000F0E2FA0190019800F012FA8B
:10CDB000019800F03BF9054606E0019800F00AFAF8
:10CDC000019800F033F90546012DF6D1019800F0E5
:10CDD00053F91090ABE000200290019800F038FA6F
:10CDE0000F900421019800F0D3FF554908610521F7
:10CDF000019800F0CDFF524948610621019800F0EA
:10CE0000C7FF4F4988610721019800F0C1FF4C49D5
:10CE1000C861002C08D10846002805D108464068A2
:10CE2000002801D1012000E000200E902002C70F51
:10CE30006002C00F0A902003C00F09902004C00FA9
:10CE40000890E004C00F0790E005000F069020074F
:10CE5000C00F05903A490868FFF7F0FE3949009085
:10CE6000FFF75EF903900020C4DF05460520364930
:10CE700008700A4608210020C7DF0546002D02D0B1
:10CE8000012011B0F0BD002600BF701CC6B2012EFB
:10CE900002D0022E2ED119E02C4800210160416001
:10CEA0002B48016041600821019800F071FF0446A1
:10CEB0000121019800F06CFF214948600846224694
:10CEC000012143680498FFF7D9FE13E0022101987D
:10CED00000F05EFF1A4988600321019800F058FFB6
:10CEE0001749C8600846C368022182680498FFF7A2
:10CEF000C5FE00BF00BF00200C90032EC5DB00263E
:10CF00000C9001200B900020C5DF0546012011493F
:10CF100008601149086000BF20BF40BF20BF0D4816
:10CF200000680028F8D101200B494860886052E76A
:10CF3000F1DD0000001501404013014000E100E078
:10CF40004819002000003C42151900200419002057
:10CF50000C190020001900200010014001B505E067
:10CF60000098401E00900348FFF7B4F8009800288E
:10CF7000F6D108BDE703000010B58A0005231B07A2
:10CF8000072424021B1984001A5110BD0121052217
:10CF9000120707231B02D2188300D15070470000EC
:10CFA00001218140014A9160704700000005005056
:10CFB000F0B50446059D2046064696400E43304691
:10CFC0000646AE401E4330460646079FBE40069FBB
:10CFD0003E4330460646099FBE40089F3E433046CA
:10CFE000F0BD000030B5034605200F4C20702046F0
:10CFF0004370022008E00424241AE5000C46EC40AB
:10D00000094D2C54441CE0B20528F4DB052008E04F
:10D010000724241AE5001446EC40034D2C54441C0C
:10D02000E0B20828F4DB30BD1519002070B50446C5
:10D0300008200E4908700E480021016041600D482B
:10D040000160416010200A490870082048700A46B3
:10D0500006480178204600F093F9054605484078D7
:10D06000002801D1012070BD0020FCE71419002028
:10D07000041900200C190020F8B505462846FFF7D2
:10D080001DFD064608200F4908700F480021016069
:10D0900041600E48016041608A200B4908700A46D1
:10D0A00008480178284600F06BF90746002E04D0A6
:10D0B000012F02D101242046F8BD0024002004469F
:10D0C000FAE7000014190020041900200C190020B0
:10D0D000F3B583B00F460020029004203A4908704F
:10D0E0003A480021016041603948016041600325F0
:10D0F000A801054614352D06002408E00320001B76
:10D10000C1002846C84031490855601CC4B2042CEF
:10D11000F4DB2E4A2C480178039800F031F9019095
:10D12000002627E002960325A801029E304305460B
:10D130002806B100795808430546002408E003207A
:10D14000001BC1002846C84020490855601CC4B2D5
:10D15000042CF4DB1D4A1C480178039800F010F9F8
:10D1600001901A4800210160416019480160416046
:10D17000701CC6B2142ED5DB6420FFF7EFFE03252A
:10D18000A801054614352806451C00240FE003209D
:10D19000001BC1002846C8400C4908550A460A48E9
:10D1A0000178039800F0ECF80190601CC4B2042CE4
:10D1B000EDDB064A04480178039800F0E1F801909D
:10D1C000019805B0F0BD00001419002004190020DA
:10D1D0000C190020F1B582B000270420184908700E
:10D1E000002426E02746092630033843064630024D
:10D1F0001449095D08430646002508E00220401B4B
:10D20000C1003046C84010494855681CC5B2032DBE
:10D21000F4DB0D4A0A480178029800F0B1F8019059
:10D220000948002101604160084801604160601CBC
:10D2300084B2012000038442D4DB0198FEBD0000CB
:10D240001419002000090020041900200C190020E6
:10D25000F1B588B008203D4908703D4800210160C3
:10D2600041603C48016041608C20394908700A46A1
:10D2700036480178089800F083F8079004200128C8
:10D2800002D0042821D10FE00124002700BFFF2194
:10D290002141C807C00F002801D0791CCFB2611C02
:10D2A000CCB2082CF3DB10E00124002700BF6200A1
:10D2B000FF2111418807800F032801D1791CCFB2CB
:10D2C000611CCCB2042CF2DB00BF00BF012000289F
:10D2D00002D0012836D117E0642179430846FFF7D0
:10D2E000F7F805461C4A1D4BFFF70AF800221C4BB5
:10D2F00003910290FEF752FF05910490FFF7FCF8AE
:10D300000690FFF72BFE1DE0642179430846FFF7E6
:10D31000DFF80546104A114BFEF7F2FF114A124B97
:10D3200001910090FEF73AFF00220D4B039102900D
:10D33000FEF734FF05910490FFF7DEF80690FFF743
:10D340000DFE00BF00BF079809B0F0BD1419002002
:10D35000041900200C1900207B14AE47E17A943F99
:10D3600000003440EC51B81E85EBF13F70B5044627
:10D3700000220121204600F03DFD0546284670BDF3
:10D38000F8B504460D461646064B32462946204659
:10D3900000F0B2FD0746002F01D00120F8BD0020AB
:10D3A000FCE700000C190020F0B51FB496B005464C
:10D3B00084460C461898199A009049005000630062
:10D3C000490840080493002D01D0012600E0002602
:10D3D0009E19FE4BF318FE4EB3420AD3009E530033
:10D3E000002E00D001269F19F84EBF197610B742C3
:10D3F00007D260462146199B189AFEF7CFFE1BB054
:10D40000F0BD009F06463E4371D0F24EB44201D1BA
:10D41000002D6CD06746049E002F00D00127F7191D
:10D42000ED4EB74206D8009F002F00D00127DB1930
:10D43000B34207D928462146199B189AFEF7AEFE3B
:10D440001BB0F0BD00230793002C2EDAE34B98426B
:10D450002BDAE34B984201DB022325E0DD4B9842B7
:10D4600023DBE04B060DF318142B0EDD3426F71AE0
:10D47000009BFB401E46BE40009FBE4215D1DE070A
:10D48000F60F02239B1B07930FE0009E002E0CD18A
:10D490001426F61A0346F3401F46B340834204D1D4
:10D4A000FE07F60F02239B1B079363460B431FD116
:10D4B000002A1DDA002C04D00798022801D0012888
:10D4C0000AD00220FFF7C6FA002213461046C149CF
:10D4D000FEF77EFF1BB0F0BD0220FFF7BBFA2A4625
:10D4E00023460020BB49FEF773FF1BB0F0BD14E0DC
:10D4F000009B002B62D1B94B984221D1BA4884429B
:10D5000002D16046002808D0B248814209DB002AD7
:10D5100010DB189811461BB0F0BD0020AD491BB0C0
:10D52000F0BD002A06DA11460122D20718985140B0
:10D530001BB0F0BDAD497944086849681BB0F0BD27
:10D54000A44EB04224D1002A1EDA002905D0994207
:10D5500013D16046002809D016E06046002875D136
:10D560009E49E20FD20711431BB0F0BD0020E20F2D
:10D570000146D20711431BB0F0BD994204DA2A4696
:10D5800023460020314669E0284621461BB0F0BD05
:10D59000994213DA01239B079A4204D12A46234673
:10D5A00010461946EBE3924B9A4207D1231E05DB46
:10D5B0002846194600F0E8FC1BB0F0BD63005B088C
:10D5C0006646002E30D100290AD0844EB1422BD1BC
:10D5D000002C0FDD002A1EDB002031461BB0F0BD01
:10D5E0000798022817D0002C15D0012813D1002C41
:10D5F00015DB10E0002C17DA0798002A09DB012858
:10D6000003D0002075491BB0F0BD002079491BB044
:10D61000F0BD012803D0002001461BB0F0BD002062
:10D620000121C9071BB0F0BDE617761C079F0D96B8
:10D630003E430CD0704EB0427EDD704E704BB04217
:10D6400016DD99420EDC002A1CDB28E05FE2012097
:10D65000FFF700FA0022134610461146FEF7B8FE07
:10D660001BB0F0BD5B48814202DB002A0ADC16E0F9
:10D67000994202DA002A05DB11E0564B994217DD88
:10D68000002A0CDD0220FFF7E5F907215D4A0020A2
:10D690000907FFF755F849004908002251E2022026
:10D6A000FFF7D8F9FFF7BCF949004908002248E222
:10D6B000002228462146FEF714FE012204460D46AC
:10D6C000D243FFF73DF8504A504BFEF710FE22467A
:10D6D0002B46FEF715FE0022454BFEF708FE0646D8
:10D6E0000F4622462B4610461946FEF709FE3B46DA
:10D6F0003246FEF705FE0646032209915207444BC7
:10D7000020462946FEF7FCFD0F460C90414A404B4F
:10D7100030460999FEF7F4FD064602913E4A3F4B1A
:10D7200020462946FEF7ECFD3246029BFEF7D9FD66
:10D7300004460B46024600E011E0099139460C9878
:10D74000FEF72CFD00250E463B4628460C9AFEF7B8
:10D75000C8FD2246099BFEF7CAFD0B468EE1012457
:10D7600000202405A14207DA352228461946FEF793
:10D77000E7FF05463420C0430A151218194810184F
:10D7800004900803000B134906460E4324498842BF
:10D7900001DC002003E02349884202DA0120074629
:10D7A00004E004980027401C361B04901E49F80032
:10D7B00079440F9008184368026828463146FEF7FE
:10D7C00090FD019119490C90794431E0FFFF1F0051
:10D7D000FFFF0F000000F03F0000E0FF0000F07FBF
:10D7E0000000404301FCFFFF0000F0BF1E0B0000E3
:10D7F0000000E03F0000F0FF0000E0410000F043C7
:10D80000FFFFEF3F01030000555555555555D53FD6
:10D810004715F73FFE822B6544DF5DF80BAE543EA3
:10D820008E9803007AB60B001C0800000408000064
:10D830000F9808184368026828463146FEF7AEFC88
:10D8400002460B460020FE49FEF7C2FD09910E90EC
:10D85000019B0C9AFEF754FD05910A900B91F94833
:10D860000121784400681290701049070843B904F8
:10D8700040180121C9044718F3490F987944081842
:10D8800043680268002439461298FEF72AFD2A46AA
:10D890003346FEF72CFD02460B4620460B99FEF759
:10D8A0002FFD054600913B462046129A0B99FEF744
:10D8B00027FD019B0C9AFEF71AFD2A46009BFEF7F6
:10D8C00010FD099B0E9AFEF71BFD109105990A9A0F
:10D8D0000E900B461046FEF713FD05460246DB4848
:10D8E0000E460B4606217844FFF744F807462A46C1
:10D8F0003346069110461946FEF702FD3A46069B4E
:10D90000FEF7FEFC05460E462046059B0A9A0B993B
:10D91000FEF744FC109B0E9AFEF7F2FC2A463346B3
:10D92000FEF73CFC019106900B9922460B461046EF
:10D93000FEF7E6FCC64D00222B4603910090FEF751
:10D940002DFC019B069AFEF729FC0F4622462B462A
:10D950002046FEF7C6FC039B009AFEF7C2FC019B23
:10D96000069AFEF7C4FC05460E4622463B46104684
:10D970000B99FEF7C5FC01910C9028463146059B9A
:10D980000A9AFEF7BDFC05460E463B462246109914
:10D990000E98FEF7B5FC33462A46FEF7FFFB064617
:10D9A0000F460B46024601990C98FEF7F7FB002044
:10D9B0000D460446019B0C9AFEF793FC3B4632460B
:10D9C000FEF795FC06460F4607225207A14B20465C
:10D9D0002946FEF795FC019102909F4A9D4B3046E7
:10D9E0003946FEF78DFC06460F469C4A9C4B204666
:10D9F0002946FEF785FC32463B46FEF7CFFB994AA7
:10DA000004467A440F981018436802682046FEF7CF
:10DA1000C5FB05910A900498FEF75AFD074603914D
:10DA2000059B0A9A01990298FEF7B8FB8E4A0446B4
:10DA30007A440F981018436802682046FEF7AEFB40
:10DA40003A46039BFEF7AAFB00250E463A462846B7
:10DA5000039BFEF746FC854A04467A440F9810184B
:10DA6000436802682046FEF73CFC019B029AFEF7E1
:10DA700038FC059B0A9AFEF73AFC0B4600210A91F6
:10DA8000079A0D996E4C521E114301D1784C0A91A0
:10DA900000221999049202460F461898FEF730FCAE
:10DAA000009007913B46049A19991898FEF719FCC3
:10DAB0002A463346FEF724FC079B009AFEF76EFBCE
:10DAC000099110902A46334639460498FEF718FC0F
:10DAD00006460F46099B109AFEF760FB654A0D4605
:10DAE000914224DB5242AA18024310D132463B46EF
:10DAF000FEF7F7FB049003915F4A604B0999109879
:10DB0000FEF74CFB039B049AFEF730FE2FD2022057
:10DB1000FEF7A0FF07215A4A00200907FEF710FE72
:10DB200049004908E20FD20711431BB0F0BD6A005B
:10DB3000544B52089A421AD3534AAA1802430CD1A2
:10DB400002E011431BB0F0BD32463B46FEF7C9FB75
:10DB5000099B109AFEF70AFE09D80220FEF77AFF09
:10DB6000FEF75EFF49004908E20FD207E9E76800C7
:10DB70000023400845490493020D454B5218984232
:10DB800023DD521C01200005D04040194200520DF7
:10DB90005118404A7A441268034694463E4ACA40A5
:10DBA000934302030120120B000510181422511A8E
:10DBB000C8400490002D01DA40420490624630468D
:10DBC0003946FEF78EFB06460F4632463B4609991C
:10DBD0001098FEF7E3FA00200D4602462F4B0E90F8
:10DBE000FEF78EFB01910C902D4A2E4B29460E9884
:10DBF000FEF786FB0791129032463B4629460E9867
:10DC0000FEF76FFB099B109AFEF771FB264A274B24
:10DC1000FEF776FB079B129AFEF7C0FA07460B4603
:10DC20000246099101990C98FEF7B8FA0E4605468E
:10DC3000019B0C9AFEF755FB3A46099B38E0000021
:10DC40000000F03FF2070000500700001607000038
:10DC50000000084009C7EE3FFD033ADCF5015B1404
:10DC6000E02F3EBEEA050000AC0500008205000082
:10DC70000000F0BF00009040FE822B654715973CE6
:10DC80000103000000CC904000346F3F01FCFFFF17
:10DC90000000E03FC0040000FFFF0F00432EE63FFE
:10DCA000396CA80C615C20BEEF39FAFE422EE63FCB
:10DCB000FEF71DFB2A46334609911090104619467F
:10DCC000FEF71EFB02460E902F480F460B4605211D
:10DCD0007844FEF74FFE3B460E9AFEF711FB2A46AC
:10DCE0003346FEF704FB0746089128463146099B58
:10DCF000109AFEF705FB099B109AFEF74FFA0123D5
:10DD000003910C9000229B0738460899FEF7E9FA28
:10DD100001910E903A4628463146089BFEF7F0FAEC
:10DD2000019B0E9AFEF754FB039B0C9AFEF7D9FA5F
:10DD30002A463346FEF7D5FA0022144BFEF7D7FAEF
:10DD4000064604980D46000541190915002911DC05
:10DD500030462946049AFEF7F3FCFEF7F5FD042849
:10DD600001D1FEF75DFE30462946049AFEF7E8FC35
:10DD7000064600E029180B46324621460A98FEF76F
:10DD8000BFFA1BB0F0BD00005C0300000000F03FD4
:10DD9000F0B587B007460C460420124908700126EA
:10DDA000B0012043C6B2104806700246084601780A
:10DDB0003846FFF7E5FA05460020019002900390EF
:10DDC00004900820094A0090D3789178507808226E
:10DDD000FFF7EEF80690002D02D1284607B0F0BDFF
:10DDE0000698FBE714190020041900200C190020E4
:10DDF00000BFFEE7F7B506460F46002E01D13C48AE
:10DE000000E03C480446002E1FD11720FFF7BEF863
:10DE10001920FFF7BBF800211620FFF7ADF81820F6
:10DE2000FFF7B4F81720052109026118886019204E
:10DE3000052109026118C860162005210902611830
:10DE400008611820FFF7ACF81EE01720FFF79EF8D6
:10DE50001920FFF79BF800211620FFF78DF81820F6
:10DE6000FFF794F81720052109026118886019202E
:10DE7000052109026118C8601620052109026118F0
:10DE800008611820FFF78CF801200007052109021E
:10DE900061184862002F06D0012F06D0022F06D04D
:10DEA000032F08D105E0002507E0022505E0042541
:10DEB00003E0062501E0002500BF00BF029800280E
:10DEC00006D001202843152189016118486103E02B
:10DED00015208001201845610021FF2009300151E3
:10DEE000012005210902611808602046FEBD0000DE
:10DEF0000030004000400040FFB581B00027002600
:10DF0000019D1F48019D854201D1182400E018247D
:10DF100000BF0120A0401B49C86000BF27E0039854
:10DF2000805D052109026918C86100E07F1CFF209F
:10DF300009304059002803D1032000038742F5D35C
:10DF400003200003874205D12046FFF729F800206F
:10DF500005B0F0BD0021FF2009304151052000022D
:10DF600028188069C1B204988155701C86B2029845
:10DF70008642D4DB2046FFF713F80120E8E70000D3
:10DF80000030004000050050F8B506460C46FEF78C
:10DF900013FC05000F4600D00120014349000B4847
:10DFA0004908411AC90F0DD0002E01D0012100E00F
:10DFB00000210C4361004908401AC00F02D1012022
:10DFC000FEF748FD28463946F8BD00000000F07F06
:10DFD000000000000000F03F000000000000F83FDB
:10DFE00000000000000000000000004003B8E23F15
:10DFF000000000000000000006D0CF43EBFD4C3EC7
:10E00000033333333333E33FFFAB6FDBB66DDB3FBB
:10E010004D268F515555D53F01411DA96074D13F03
:10E0200065DBC9934A86CD3FEF4E454A287ECA3FFD
:10E030003E5555555555C53F93BDBE166CC166BF7F
:10E040002CDE25AF6A56113FF16BD2C541BDBBBE78
:10E05000D0A4BE726937663E0000000000000000D8
:10E0600070E0000000090020281000005AC80000DD
:10E07000301600000062630065BE012026425C4845
:10E08000A00321E42031A106100684012363011FAF
:10E0900010180000200B4358C0FE43C0447A7E2075
:10E0A0000BC0C0C0C8FF43ED44082005F6FF43EC99
:10E0B000081023C8FF412394D043EE44D243EF44D9
:10E0C000205A706071617868027AF343C7FE41EBB1
:10E0D000455A21DF4601512A100E4355ED45EC51BA
:10E0E000F4412388EA45F5063023E9451D414358AC
:10E0F000EA2199E95046EB44A902EB5943CAFE4193
:10E100005CA803C05AEB45EB41F245F62B32F72BE6
:10E11000021A1F2B5008F34502FFFFFF470150066C
:10E120007C7D4541020CA007F07C6D45416C11E2FD
:10E130006C1ED10F6129032D024F01032D024E01E8
:10E14000032D025601032E025E011006026AFD43F2
:10E1500040C91405EB457AF9412405EB2199EABE43
:10E1600086F1BE1405ED45C041D01021F8FF43E90A
:10E17000446A1D43AB01EA588E03EC531D501F4403
:10E18000EC53ED53E943EC58ACE68E262372F93597
:10E190002903213522FC35100F1D431F59E943ED9A
:10E1A00053EC5358ACF27A5D22C9287004E744E876
:10E1B0002C131F43EE217722CF65138E070A22CB43
:10E1C0006F13405D3C180421CAE84A400C1D45F815
:10E1D00043AB0CC041ED53532E6011E753C041E8EF
:10E1E00053E75341EC45E9435CACD33E13E8410FA0
:10E1F00012A82A1004E84353371808445943ABEBDC
:10E20000C84365100F447A8A1BC043405D5D90157A
:10E21000C845C94F1012AA0BCA45CB45CC45CD45C0
:10E22000CE45CF450002C05813EA448012060A21A9
:10E2300009117232130B134E5096100408C0430A92
:10E24000210B49AC500E4E4EE9519101235AEA433D
:10E25000E951920852930852940852950852960830
:10E260005297301302E99221D51405027AFA417EC1
:10E270002017E7455AFB43E77521CA65D0455AFC8C
:10E2800043E721CAD1455AFD08180FD245796902E2
:10E29000D7FE43E7455DAD015D7D280E1F431D445C
:10E2A000C043EC51ED515DAAF2D501FF0101FF0120
:10E2B00001FF0101FF0101FF0101FF0101FF010158
:10E2C000FF0101FF0101FF0101FF0101FF01A101A8
:10E2D00000043D020103424E00E20F011901332404
:04E2E000F422000024
:040000050000C0C176
:00000001FF
